:020000040800F2
:1000000000800020AD460008730300087903000853
:100010007F030008850300088B0300080000000030
:100020000000000000000000000000008143000804
:10003000910300080000000061450008A945000880
:10004000FD460008FD460008FD460008FD46000884
:10005000FD460008FD460008FD460008FD46000874
:10006000FD460008FD460008FD460008FD46000864
:10007000FD460008FD460008FD460008FD46000854
:10008000FD460008FD460008FD460008FD46000844
:10009000FD460008FD460008FD460008FD46000834
:1000A000FD460008FD460008FD460008FD46000824
:1000B000FD4600089D030008FD460008FD460008B7
:1000C000FD460008FD460008FD460008FD46000804
:1000D000FD460008FD460008FD460008FD460008F4
:1000E000FD460008FD460008FD460008FD460008E4
:1000F000FD460008FD460008FD460008FD460008D4
:10010000FD460008FD460008FD460008FD460008C3
:10011000FD460008FD460008FD460008FD460008B3
:10012000FD460008FD460008FD460008FD460008A3
:08013000FD460008FD46000831
:1001400010B5054C237833B9044B13B10448AFF311
:1001500000800123237010BD10000020000000006B
:100160007447000808B5034B1BB103490348AFF3BC
:10017000008008BD00000000140000207447000843
:1001800080B485B000AF78604FF0B043DA6C4FF0C8
:10019000B0417B681343CB644FF0B043DA6C7B68AB
:1001A0001340FB60FB6800BF1437BD4680BC70473E
:1001B00080B500AF01F024FD00F008F800F058F819
:1001C00003F034FF03F064FFFEE7000080B59AB04F
:1001D00000AF07F1200348220021184604F0C2FABC
:1001E0003B1D00221A605A609A60DA601A615A61F7
:1001F0009A611E4B1B6823F4C0631C4A43F480635E
:1002000013601A4B1B6803F4C0633B603B682023F8
:100210003B6201233B6400237B646023BB640023B7
:10022000FB6407F12003184600F0F6FB0346002BA1
:1002300001D000F099F84F237B600023BB600023BE
:10024000FB6000233B6100237B610023FB613B1DBE
:100250000021184600F062FF0346002B01D000F099
:1002600083F800BF6837BD4680BD00BF000400585A
:1002700080B586B000AF3B1D00221A605A609A60BC
:10028000DA601A610220FFF77BFF0420FFF778FF96
:100290000120FFF775FF00224FF40A41274801F0C3
:1002A0009FFB00223821264801F09AFB4FF40A43B5
:1002B0007B600123BB600023FB6002233B613B1D8D
:1002C00019461E4801F02CFA38237B600123BB60DD
:1002D0000023FB6003233B613B1D1946184801F0D6
:1002E0001FFA03237B604FF40413BB600123FB6000
:1002F0003B1D19464FF0904001F012FA40237B60FD
:100300004FF40413BB600123FB603B1D19460C48EE
:1003100001F006FA0C237B600223BB600023FB6024
:1003200000233B6107237B613B1D19464FF0904042
:1003300001F0F6F900BF1837BD4680BD0004004843
:100340000008004880B582B000AF78607B681B6809
:10035000044A934201D101F073FC00BF0837BD4647
:1003600080BD00BF0048014080B400AF72B600BF3E
:10037000FEE780B400AFFEE780B400AFFEE780B4D4
:1003800000AFFEE780B400AFFEE780B400AFFEE749
:1003900080B400AF00BFBD4680BC704780B500AFE1
:1003A000024801F015FD00BF80BD00BF2C000020F9
:1003B00080B500AF00220F216FF0010001F0F7FBC4
:1003C00000BF80BD80B485B000AF78604FF0B0430F
:1003D0001A6E4FF0B0417B6813430B664FF0B04389
:1003E0001A6E7B681340FB60FB6800BF1437BD4684
:1003F00080BC704780B58EB000AF786000233B634F
:100400000023FB62002387F837304FF48020FFF78A
:10041000D9FF07F10C0207F110031146184601F04D
:1004200085F801F071F838633B6B214AA2FB032386
:100430009B0C013BFB621F4B1F4A1A601D4B40F295
:10044000E732DA601B4AFB6A53601A4B00221A61DA
:10045000184B00229A60174801F00EFC034687F8FB
:10046000373097F83730002B1BD1124801F064FC6D
:10047000034687F8373097F83730002B11D11D200D
:1004800001F0AFFB7B680F2B08D8002279681D2094
:1004900001F08DFB094A7B68136002E0012387F8B5
:1004A000373097F8373018463837BD4680BD00BF23
:1004B00083DE1B432C000020004801400000002088
:1004C00080B400AF064B1B6803F48073B3F5807FE4
:1004D00001D1012300E000231846BD4680BC7047CF
:1004E0000004005880B400AF4FF0B0431B684FF0D9
:1004F000B04243F40013136000BFBD4680BC704798
:1005000080B400AF4FF0B0431B684FF0B04223F40B
:100510000013136000BFBD4680BC704780B400AFBD
:100520004FF0B0431B6803F48013B3F5801F01D173
:10053000012300E000231846BD4680BC704780B40C
:1005400000AF4FF0B0431B684FF0B04243F480332C
:10055000136000BFBD4680BC704780B400AF4FF051
:10056000B0431B684FF0B04223F48033136000BFE8
:10057000BD4680BC704780B400AF4FF0B0431B68ED
:1005800003F40033B3F5003F01D1012300E0002361
:100590001846BD4680BC704780B400AF4FF0B043F2
:1005A0001B684FF0B04243F48073136000BFBD4638
:1005B00080BC704780B400AF4FF0B0431B684FF071
:1005C000B04223F48073136000BFBD4680BC704707
:1005D00080B400AF4FF0B0431B6803F48063B3F501
:1005E000806F01D1012300E000231846BD4680BC86
:1005F000704780B483B000AF78604FF0B0435B6861
:1006000023F0FE427B681B064FF0B04113434B6062
:1006100000BF0C37BD4680BC704780B400AF4FF0C0
:10062000B043D3F8903003F00203022B01D1012331
:1006300000E000231846BD4680BC704780B400AF80
:100640004FF0B043D3F894304FF0B04243F0010381
:10065000C2F8943000BFBD4680BC704780B400AF84
:100660004FF0B043D3F894304FF0B04223F0010381
:10067000C2F8943000BFBD4680BC704780B400AF64
:100680004FF0B043D3F8943003F00203022B01D1B2
:10069000012300E000231846BD4680BC704780B4AB
:1006A00000AF4FF0B0431B684FF0B04243F001037E
:1006B000136000BFBD4680BC704780B400AF4FF0F0
:1006C000B0431B684FF0B04223F00103136000BF3A
:1006D000BD4680BC704780B400AF4FF0B0431B688C
:1006E00003F00203022B01D1012300E0002318468E
:1006F000BD4680BC704780B400AF4FF0B0431B686C
:1007000003F00803082B01D1012300E00023184661
:10071000BD4680BC704780B400AF4FF0B0431B684B
:1007200003F0F0031846BD4680BC704780B400AFAC
:100730004FF0B043D3F8943003F470631846BD46CD
:1007400080BC704780B483B000AF78604FF0B04396
:100750005B6823F47F427B681B024FF0B041134378
:100760004B6000BF0C37BD4680BC704780B483B07F
:1007700000AF78604FF0B0439B6823F003024FF066
:10078000B0417B6813438B6000BF0C37BD4680BC13
:10079000704780B400AF4FF0B0439B6803F00C0388
:1007A0001846BD4680BC704780B483B000AF786007
:1007B0004FF0B0439B6823F0F0024FF0B0417B68EC
:1007C00013438B6000BF0C37BD4680BC704780B4BC
:1007D00083B000AF78604FF0B043D3F8083123F016
:1007E000F0024FF0B0417B681343C1F8083100BFFD
:1007F0000C37BD4680BC704780B483B000AF7860D2
:100800004FF0B043D3F8083123F00F027B681B0987
:100810004FF0B0411343C1F8083100BF0C37BD465B
:1008200080BC704780B483B000AF78604FF0B043B5
:100830009B6823F4E0624FF0B0417B6813438B6008
:1008400000BF0C37BD4680BC704780B483B000AF9A
:1008500078604FF0B0439B6823F460524FF0B04192
:100860007B6813438B6000BF0C37BD4680BC70476C
:1008700080B400AF4FF0B0439B6803F0F00318461C
:10088000BD4680BC704780B400AF4FF0B043D3F892
:1008900008311B0103F0F0031846BD4680BC7047C9
:1008A00080B400AF4FF0B0439B6803F46053184628
:1008B000BD4680BC704780B400AF4FF0B0431B68AA
:1008C0004FF0B04243F08073136000BFBD4680BC60
:1008D000704780B400AF4FF0B0431B684FF0B04298
:1008E00023F08073136000BFBD4680BC704780B4A6
:1008F00000AF4FF0B0431B6803F00073B3F1007F0B
:1009000001D1012300E000231846BD4680BC70479A
:1009100080B400AF4FF0B043DB681B0A03F07F03E5
:100920001846BD4680BC704780B400AF4FF0B0435E
:10093000DB6803F060431846BD4680BC704780B456
:1009400000AF4FF0B043DB6803F070031846BD46BC
:1009500080BC704780B400AF4FF0B043DB6803F059
:1009600003031846BD4680BC704780B400AF4FF00B
:10097000B0439B6803F48033B3F5803F01D101237A
:1009800000E000231846BD4680BC704780B400AF2D
:100990004FF0B043D3F8083103F40033B3F5003F10
:1009A00001D1012300E000231846BD4680BC7047FA
:1009B00080B400AF4FF0B043D3F8083103F4803374
:1009C000B3F5803F01D1012300E000231846BD4666
:1009D00080BC704780B400AF4FF0B0439B6803F415
:1009E0000033B3F5003F01D1012300E00023184696
:1009F000BD4680BC704780B400AF4FF0B0439B68E9
:100A000003F48023B3F5802F01D1012300E00023FC
:100A10001846BD4680BC704780B588B000AF78608E
:100A20007B68002B01D101236FE3FFF7B2FEF86171
:100A3000FFF790FFB8617B681B6803F02003002B71
:100A400000F0C480FB69002B05D0FB690C2B76D12C
:100A5000BB69012B73D17B681B6A002B01D1012379
:100A600053E37B689A6A4FF0B0431B6803F00803B6
:100A7000002B05D04FF0B0431B6803F0F00306E0F5
:100A80004FF0B043D3F894301B0903F0F0039342C6
:100A900022D27B689B6A184600F090FD0346002B2B
:100AA00001D0012331E34FF0B0431B684FF0B04257
:100AB00043F0080313604FF0B0431B6823F0F002CB
:100AC0007B689B6A4FF0B04113430B607B685B6AA5
:100AD0001846FFF737FE21E04FF0B0431B684FF098
:100AE000B04243F0080313604FF0B0431B6823F09B
:100AF000F0027B689B6A4FF0B04113430B607B6848
:100B00005B6A1846FFF71EFE7B689B6A184600F07A
:100B100055FD0346002B01D00123F6E200F0E0FC76
:100B20000346A74A1360A74B1B681846FFF762FCF1
:100B30000346FB74FB7C002B47D0FB7CE5E27B6823
:100B40001B6A002B2CD0FFF7AAFD01F08BF878610F
:100B500008E001F087F802467B69D31A022B01D91D
:100B60000323D2E2FFF7B7FD0346002BF1D04FF08D
:100B7000B0431B684FF0B04243F0080313604FF0DE
:100B8000B0431B6823F0F0027B689B6A4FF0B041D2
:100B900013430B607B685B6A1846FFF7D3FD15E0D3
:100BA000FFF78BFD01F05EF8786108E001F05AF87C
:100BB00002467B69D31A022B01D90323A5E2FFF772
:100BC0008AFD0346002BF1D100E000BF7B681B6863
:100BD00003F00103002B58D0FB69082B05D0FB69FB
:100BE0000C2B08D1BB69032B05D17B685B68002BFC
:100BF0004BD1012389E24FF0B0431B6823F48012EC
:100C00007B689B684FF0B04113430B607B685B6867
:100C1000B3F5803F02D1FFF792FC0DE07B685B6883
:100C2000B3F5041F04D1FFF75DFCFFF788FC03E078
:100C3000FFF793FCFFF764FC7B685B68002B12D026
:100C400001F010F8786108E001F00CF802467B69C9
:100C5000D31A642B01D9032357E2FFF78CFC034618
:100C6000002BF1D011E000F0FDFF786108E000F00A
:100C7000F9FF02467B69D31A642B01D9032344E2AE
:100C8000FFF779FC0346002BF1D17B681B6803F06A
:100C90000203002B46D0FB69042B05D0FB690C2B0B
:100CA0000ED1BB69022B0BD17B681B69002B01D1D4
:100CB00001232AE27B685B691846FFF79AFC31E062
:100CC0007B681B69002B19D0FFF766FC00F0CAFF98
:100CD000786108E000F0C6FF02467B69D31A022B58
:100CE00001D9032311E2FFF773FC0346002BF1D077
:100CF0007B685B691846FFF77CFC13E0FFF75AFC42
:100D000000F0B0FF786108E000F0ACFF02467B69BC
:100D1000D31A022B01D90323F7E1FFF759FC03464D
:100D2000002BF1D17B681B6803F00803002B6ED009
:100D30007B689B69002B56D04FF0B043D3F89430BA
:100D4000FB607B68DA69FB6803F010039A4231D0DC
:100D5000FB6803F00203002B06D0FB6803F00103DD
:100D6000002B01D10123D0E1FB6803F00103002B2C
:100D700013D0FFF773FC00F075FF786108E000F016
:100D800071FF02467B69D31A112B01D90323BCE101
:100D9000FFF774FC0346002BF1D14FF0B043D3F8BA
:100DA000943023F010027B68DB694FF0B0411343AD
:100DB000C1F89430FFF742FC00F054FF78610CE07A
:100DC000080000200000002000F04CFF02467B6974
:100DD000D31A112B01D9032397E1FFF74FFC0346E8
:100DE000002BF1D013E0FFF739FC00F03BFF7861F6
:100DF00008E000F037FF02467B69D31A112B01D9B6
:100E0000032382E1FFF73AFC0346002BF1D17B6814
:100E10001B6803F00403002B00F0D880FFF750FBA1
:100E20000346002B13D100F0F3FD00F01BFF7861A7
:100E300008E000F017FF02467B69D31A022B01D9A4
:100E4000032362E1FFF73CFB0346002BF1D07B68F4
:100E5000DB68002B7BD07B68DB68852B03D07B684D
:100E6000DB68052B09D14FF0B043D3F890304FF039
:100E7000B04243F00403C2F8903000F0F3FE786112
:100E80004FF0B043D3F890304FF0B04243F001033D
:100E9000C2F890300AE000F0E5FE02467B69D31A02
:100EA00041F28832934201D903232EE1FFF7B5FBCB
:100EB0000346002BEFD07B68DB68812B03D07B6877
:100EC000DB68852B21D100F0CDFE78614FF0B04377
:100ED000D3F890304FF0B04243F08003C2F8903026
:100EE0000AE000F0BFFE02467B69D31A41F2883265
:100EF000934201D9032308E14FF0B043D3F8903077
:100F000003F40063002BECD060E000F0ABFE7861EE
:100F10004FF0B043D3F890304FF0B04223F080034D
:100F2000C2F890300AE000F09DFE02467B69D31AB9
:100F300041F28832934201D90323E6E04FF0B043F7
:100F4000D3F8903003F40063002BECD13EE000F0C6
:100F500089FE78614FF0B043D3F890304FF0B04243
:100F600023F08003C2F890300AE000F07BFE0246D6
:100F70007B69D31A41F28832934201D90323C4E03A
:100F80004FF0B043D3F8903003F40063002BECD162
:100F900000F068FE78614FF0B043D3F890304FF026
:100FA000B04223F00103C2F890300AE000F05AFE8C
:100FB00002467B69D31A41F28832934201D9032356
:100FC000A3E0FFF72AFB0346002BEFD17B68DB6A27
:100FD000002B00F09980FB690C2B6CD07B68DB6ADE
:100FE000022B4BD1FFF775FC00F03CFE786108E066
:100FF00000F038FE02467B69D31A0A2B01D903237D
:1010000083E0FFF774FC0346002BF1D14FF0B043AF
:10101000DA68404B13407A68116B7A68526B11435F
:101020007A68926B120211437A68D26B11437A6824
:10103000126C11437A68526C0A434FF0B04113436B
:10104000CB60FFF738FC4FF0B043DB684FF0B042A5
:1010500043F08053D36000F005FE786108E000F0B3
:1010600001FE02467B69D31A0A2B01D903234CE007
:10107000FFF73DFC0346002BF1D045E0FFF729FCCC
:1010800000F0F0FD786108E000F0ECFD02467B69BD
:10109000D31A0A2B01D9032337E0FFF728FC0346B4
:1010A000002BF1D14FF0B043DA684FF0B0411A4B4A
:1010B0001340CB6028E07B68DB6A012B01D1012360
:1010C00023E04FF0B043DB68BB61BB6903F0030270
:1010D0007B681B6B9A4215D1BB6903F070027B6879
:1010E0005B6B9A420ED1BB6903F4FE427B689B6B3B
:1010F0001B029A4206D1BB6903F060427B685B6CBD
:101100009A4201D0012300E0002318462037BD4653
:1011100080BD00BF8C80C111FCFFFEEE80B584B0A5
:1011200000AF786039607B68002B01D101232CE18E
:10113000984B1B6803F007033A689A421BD9954BFA
:101140001B6823F0070293493B6813430B6000F0D0
:1011500089FDF86008E000F085FD0246FB68D31ABF
:10116000022B01D9032310E18A4B1B6803F007030C
:101170003A689A42EFD17B681B6803F00203002BA8
:1011800016D07B689B681846FFF70EFB00F06AFDDF
:10119000F86008E000F066FD0246FB68D31A022BF7
:1011A00001D90323F1E0FFF7E0FB0346002BF1D068
:1011B0007B681B6803F02003002B16D07B685B69FB
:1011C0001846FFF704FB00F04DFDF86008E000F062
:1011D00049FD0246FB68D31A022B01D90323D4E050
:1011E000FFF7D4FB0346002BF1D07B681B6803F0AC
:1011F0004003002B16D07B689B691846FFF7FCFA6A
:1012000000F030FDF86008E000F02CFD0246FB68BD
:10121000D31A022B01D90323B7E0FFF7C9FB03461A
:10122000002BF1D07B681B6803F00403002B16D061
:101230007B68DB681846FFF7F5FA00F013FDF860ED
:1012400008E000F00FFD0246FB68D31A022B01D91B
:1012500003239AE0FFF7BEFB0346002BF1D07B6827
:101260001B6803F00803002B17D07B681B69DB00A9
:101270001846FFF7EAFA00F0F5FCF86008E000F025
:10128000F1FC0246FB68D31A022B01D903237CE050
:10129000FFF7B1FB0346002BF1D07B681B6803F01E
:1012A0000103002B43D07B685B68022B06D1FFF75C
:1012B00062F90346002B1ED1012366E07B685B6860
:1012C000032B06D1FFF713FB0346002B13D1012399
:1012D0005BE07B685B68002B06D1FFF7FCF90346F7
:1012E000002B08D1012350E0FFF772F90346002BD1
:1012F00001D1012349E07B685B681846FFF736FAA5
:1013000000F0B0FCF8600AE000F0ACFC0246FB68BC
:10131000D31A41F28832934201D9032335E0FFF713
:1013200038FA02467B685B689B009A42ECD1194B05
:101330001B6803F007033A689A421BD2154B1B68DF
:1013400023F0070213493B6813430B6000F08AFC4B
:10135000F86008E000F086FC0246FB68D31A022B16
:1013600001D9032311E00B4B1B6803F007033A6814
:101370009A42EFD100F0B4F80346074A1360074BD6
:101380001B681846FFF736F8034618461037BD4667
:1013900080BD00BF00400058080000200000002071
:1013A00090B587B000AF00237B6100233B61FFF75E
:1013B000F0F9B860FFF7CEFA7860BB68002B05D073
:1013C000BB680C2B39D17B68012B36D1FFF793F921
:1013D0000346002B15D1FFF78EF90346012B06D1EA
:1013E000FFF799F903461B0A03F00F0305E0FFF727
:1013F0009DF903461B0A03F00F03364A52F82330C7
:1014000014E0FFF778F90346012B06D1FFF783F9C3
:1014100003461B0903F00F0305E0FFF787F90346B6
:101420001B0903F00F032B4A52F823303B61BB68C2
:10143000002B15D13B697B6112E0BB68042B02D104
:10144000254B7B610CE0BB68082B09D1FFF766F8E0
:101450000346012B02D1204B7B6101E01F4B7B61D6
:10146000FFF797F903460C2B2FD1FFF773FA78603B
:101470007B68022B03D07B68032B03D00DE0164B57
:10148000FB600DE0FFF74AF80346012B02D1124B37
:10149000FB6005E0114BFB6002E03B69FB6000BFB5
:1014A000FFF736FA0246FB6803FB02F4FFF747FA40
:1014B00003461B090133B4FBF3F4FFF735FA034687
:1014C0005B0F0133B4FBF3F37B617B6918461C3778
:1014D000BD4690BD244800080024F4000048E801FF
:1014E00098B500AFFFF75CFF0446FFF7C1F903466C
:1014F0001B0903F00F03034A52F82330B4FBF3F344
:10150000184698BDC447000898B500AFFFF7E8FF3C
:101510000446FFF7C5F90346DB0A034A52F82330B5
:1015200024FA03F3184698BD0448000880B485B037
:1015300000AF786039607B68002B38D03B68002BA7
:1015400035D07B684F221A607B681B6843F020020D
:101550007B681A604FF0B0439B68FB60FB6803F048
:101560000C027B685A60FB6803F0F0027B689A60AB
:10157000FB6803F4E0627B68DA60FB6803F46052A6
:101580007B681A614FF0B043D3F80831FB60FB6809
:1015900003F0F0027B685A61FB681B01DAB27B68DA
:1015A0009A61054B1B6803F007023B681A6000BF95
:1015B0001437BD4680BC70470040005890B585B0D8
:1015C00000AF78607B681B0903F00F03104A52F8E4
:1015D0002330FB60FFF757F903461B0903F00F03A5
:1015E0000C4A52F82330FA68B2FBF3F3BB60BB68D5
:1015F000094AA2FB03239C0C00F018FA0346194683
:10160000204600F00BF8034618461437BD4690BD3F
:1016100024480008C447000883DE1B4380B58EB011
:1016200000AF786039603A4A07F1200392E803007E
:10163000186004331980374A07F1180392E8030051
:10164000186004331980344A07F10C0307CA83E891
:10165000070000237B633B68B3F5007F1BD10023A9
:101660003B6314E03B6B5B0038333B4433F8183C7E
:101670001A467B68934207D83B6B9B0038333B4448
:1016800053F82C3C7B6321E03B6B01333B633B6BAA
:10169000022BE7D91AE00023FB6214E0FB6A5B002F
:1016A00038333B4433F8203C1A467B68934207D8D2
:1016B000FB6A9B0038333B4453F82C3C7B6305E0CA
:1016C000FB6A0133FB62FB6A022BE7D9134B1B68F1
:1016D00023F0070211497B6B13430B6000F0C2FA41
:1016E000B86208E000F0BEFA0246BB6AD31A022BC9
:1016F00001D9032307E0094B1B6803F007037A6B4A
:101700009A42EFD1002318463837BD4680BD00BF4E
:101710009047000898470008A0470008004000587C
:1017200080B487B000AF7860396000237B6140E10E
:101730003B681A6801217B6901FA03F31340FB60DF
:10174000FB68002B00F032813B685B6803F0030309
:10175000012B05D03B685B6803F00303022B30D1FB
:101760007B689B683B617B695B00032202FA03F3A1
:10177000DB433A6913403B613B68DA687B695B0095
:1017800002FA03F33A6913433B617B683A699A6052
:101790007B685B683B6101227B6902FA03F3DB43F0
:1017A0003A6913403B613B685B681B0903F0010227
:1017B0007B6902FA03F33A6913433B617B683A6938
:1017C0005A603B685B6803F00303032B17D07B6808
:1017D000DB683B617B695B00032202FA03F3DB43B6
:1017E0003A6913403B613B689A687B695B0002FA87
:1017F00003F33A6913433B617B683A69DA603B68FB
:101800005B6803F00303022B23D17B69DA087B6852
:10181000083253F822303B617B6903F007039B00D9
:101820000F2202FA03F3DB433A6913403B613B6842
:101830001A697B6903F007039B0002FA03F33A6914
:1018400013433B617B69DA087B680832396943F8E6
:1018500022107B681B683B617B695B00032202FAF4
:1018600003F3DB433A6913403B613B685B6803F079
:1018700003027B695B0002FA03F33A6913433B619D
:101880007B683A691A603B685B6803F44033002B5D
:1018900000F08C804E4A7B699B08023352F823305B
:1018A0003B617B6903F003039B00072202FA03F309
:1018B000DB433A6913403B617B68B3F1904F0DD035
:1018C0007B68444A934207D07B68434A934201D1E4
:1018D000022304E0072302E0012300E000237A69E9
:1018E00002F00302920093403A6913433B61384986
:1018F0007B699B0802333A6941F82320374B1B6808
:101900003B61FB68DB433A6913403B613B685B68C2
:1019100003F48013002B03D03A69FB6813433B6147
:101920002E4A3B6913602D4B5B683B61FB68DB43D0
:101930003A6913403B613B685B6803F40013002B7A
:1019400003D03A69FB6813433B61244A3B69536007
:10195000224BD3F880303B61FB68DB433A6913408C
:101960003B613B685B6803F48033002B03D03A692A
:10197000FB6813433B61194A3B69C2F88030174B3F
:10198000D3F884303B61FB68DB433A6913403B6129
:101990003B685B6803F40033002B03D03A69FB68B3
:1019A00013433B610D4A3B69C2F884307B690133C4
:1019B0007B613B681A687B6922FA03F3002B7FF492
:1019C000B7AE00BF00BF1C37BD4680BC704700BF2C
:1019D00000000140000400480008004800080058CA
:1019E00080B483B000AF78600B467B8013467B7079
:1019F0007B78002B03D07A887B689A6102E07A8832
:101A00007B689A6200BF0C37BD4680BC70470000FF
:101A100080B400AF044B1B68034A43F48073136027
:101A200000BFBD4680BC70470004005880B400AFC2
:101A3000034B1B6803F4C0631846BD4680BC704767
:101A40000004005880B485B000AF78607B6803F074
:101A50000703FB600C4BDB68BB60BA684FF6FF0303
:101A60001340BB60FB681A02BB68134343F0BF63BB
:101A700043F40033BB60044ABB68D36000BF143733
:101A8000BD4680BC704700BF00ED00E080B400AFF1
:101A9000044BDB681B0A03F007031846BD4680BCF5
:101AA000704700BF00ED00E080B483B000AF034694
:101AB000FB7197F90730002B0BDBFB7903F01F025A
:101AC000064997F907305B09012000FA02F241F854
:101AD000232000BF0C37BD4680BC704700E100E00A
:101AE00080B483B000AF03463960FB7197F90730CB
:101AF000002B0ADB3B68DAB20C4997F90730120178
:101B0000D2B20B4483F800230AE03B68DAB20849FA
:101B1000FB7903F00F03043B1201D2B20B441A7697
:101B200000BF0C37BD4680BC704700BF00E100E03D
:101B300000ED00E080B489B000AFF860B9607A6071
:101B4000FB6803F00703FB61FB69C3F10703042B88
:101B500028BF0423BB61FB690433062B02D9FB6950
:101B6000033B00E000237B614FF0FF32BB6902FAC8
:101B700003F3DA43BB681A407B699A404FF0FF31A8
:101B80007B6901FA03F3D9437B680B401343184682
:101B90002437BD4680BC704780B582B000AF786006
:101BA0007868FFF74FFF00BF0837BD4680BD80B59E
:101BB00086B000AF0346B9607A60FB73FFF766FF3B
:101BC00078617A68B9687869FFF7B4FF024697F9D7
:101BD0000F3011461846FFF783FF00BF1837BD4688
:101BE00080BD80B582B000AF0346FB7197F9073026
:101BF0001846FFF759FF00BF0837BD4680BD0000FB
:101C000080B582B000AF0023FB710320FFF7C4FF53
:101C1000FFF766FC0346094A13600F20FEF7EAFB54
:101C20000346002B02D00123FB7101E0FEF7C0FB4D
:101C3000FB7918460837BD4680BD00BF080000206C
:101C400080B400AF054B1B781A46054B1B68134444
:101C5000034A136000BFBD4680BC704704000020EB
:101C60007800002080B400AF024B1B681846BD46C8
:101C700080BC70477800002080B582B000AF7860EB
:101C80007B68002B01D1012349E07B6893F83D304C
:101C9000DBB2002B06D17B68002283F83C207868F9
:101CA00000F041F87B68022283F83D207B681A68C7
:101CB0007B6804331946104600F0CEF97B68012298
:101CC00083F848207B68012283F83E207B6801224C
:101CD00083F83F207B68012283F840207B68012243
:101CE00083F841207B68012283F842207B6801222F
:101CF00083F843207B68012283F844207B6801221B
:101D000083F845207B68012283F846207B68012206
:101D100083F847207B68012283F83D200023184682
:101D20000837BD4680BD80B483B000AF786000BF87
:101D30000C37BD4680BC704780B485B000AF78607A
:101D40007B6893F83D30DBB2012B01D0012336E0F4
:101D50007B68022283F83D207B681B68DA687B6819
:101D60001B6842F00102DA607B681B68164A9342E6
:101D700004D07B681B68B3F1804F15D17B681B686A
:101D80009A68124B1340FB60FB68062B15D0FB686A
:101D9000B3F5803F11D07B681B681A687B681B68AD
:101DA00042F001021A6008E07B681B681A687B68D1
:101DB0001B6842F001021A6000E000BF00231846D1
:101DC0001437BD4680BC7047002C0140070001005D
:101DD00080B582B000AF78607B681B681B6903F038
:101DE0000203022B22D17B681B68DB6803F002032D
:101DF000022B1BD17B681B686FF002021A617B68A3
:101E000001221A777B681B689B6903F00303002B90
:101E100003D0786800F004F905E0786800F0F7F87E
:101E2000786800F006F97B6800221A777B681B68E7
:101E30001B6903F00403042B22D17B681B68DB6859
:101E400003F00403042B1BD17B681B686FF00402B2
:101E50001A617B6802221A777B681B689B6903F40E
:101E60004073002B03D0786800F0DAF805E078685A
:101E700000F0CDF8786800F0DCF87B6800221A7773
:101E80007B681B681B6903F00803082B22D17B6861
:101E90001B68DB6803F00803082B1BD17B681B68F9
:101EA0006FF008021A617B6804221A777B681B684E
:101EB000DB6903F00303002B03D0786800F0B0F86F
:101EC00005E0786800F0A3F8786800F0B2F87B6865
:101ED00000221A777B681B681B6903F01003102B24
:101EE00022D17B681B68DB6803F01003102B1BD129
:101EF0007B681B686FF010021A617B6808221A77F2
:101F00007B681B68DB6903F44073002B03D078689F
:101F100000F086F805E0786800F079F8786800F05D
:101F200088F87B6800221A777B681B681B6903F0BE
:101F30000103012B0ED17B681B68DB6803F00103F2
:101F4000012B07D17B681B686FF001021A6178686A
:101F5000FEF7F8F97B681B681B6903F08003802B90
:101F60000ED17B681B68DB6803F08003802B07D1F0
:101F70007B681B686FF080021A61786800F0D7F800
:101F80007B681B681B6903F48073B3F5807F0ED1F7
:101F90007B681B68DB6803F08003802B07D17B68BC
:101FA0001B686FF480721A61786800F0C9F87B686A
:101FB0001B681B6903F04003402B0ED17B681B6834
:101FC000DB6803F04003402B07D17B681B686FF090
:101FD00040021A61786800F035F87B681B681B695D
:101FE00003F02003202B0ED17B681B68DB6803F015
:101FF0002003202B07D17B681B686FF020021A6139
:10200000786800F08BF800BF0837BD4680BD80B40B
:1020100083B000AF786000BF0C37BD4680BC70470E
:1020200080B483B000AF786000BF0C37BD4680BC81
:10203000704780B483B000AF786000BF0C37BD46F6
:1020400080BC704780B483B000AF786000BF0C37AD
:10205000BD4680BC7047000080B485B000AF78609A
:1020600039607B681B68FB607B68294A934203D018
:102070007B68B3F1804F08D1FB6823F07003FB60ED
:102080003B685B68FA681343FB607B68204A9342B5
:102090000BD07B68B3F1804F07D07B681D4A934219
:1020A00003D07B681C4A934208D1FB6823F4407339
:1020B000FB603B68DB68FA681343FB60FB6823F056
:1020C00080023B685B691343FB607B68FA681A60B7
:1020D0003B689A687B68DA623B681A687B689A6238
:1020E0007B680B4A934207D07B680A4A934203D02D
:1020F0007B68094A934203D13B681A697B681A637B
:102100007B6801225A6100BF1437BD4680BC70470E
:10211000002C0140004401400048014080B483B0DD
:1021200000AF786000BF0C37BD4680BC704780B4FC
:1021300083B000AF786000BF0C37BD4680BC7047ED
:1021400080B483B000AF786000BF0C37BD4680BC60
:10215000704780B400AF00BFBD4680BC704780B4FC
:1021600083B000AF78607B6803F108027B685A6037
:102170007B684FF0FF329A607B6803F108027B684E
:10218000DA607B6803F108027B681A617B680022D1
:102190001A6000BF0C37BD4680BC704780B483B066
:1021A00000AF78607B6800221A6100BF0C37BD4623
:1021B00080BC704780B485B000AF786039607B68C0
:1021C0005B68FB603B68FA685A60FB689A683B682A
:1021D0009A60FB689B683A685A60FB683A689A6044
:1021E0003B687A681A617B681B685A1C7B681A60B6
:1021F00000BF1437BD4680BC704780B485B000AFC7
:10220000786039603B681B68BB60BB68B3F1FF3F17
:1022100003D17B681B69FB600CE07B680833FB60C3
:1022200002E0FB685B68FB60FB685B681B68BA6880
:102230009A42F6D2FB685A683B685A603B685B6812
:102240003A689A603B68FA689A60FB683A685A6034
:102250003B687A681A617B681B685A1C7B681A6045
:1022600000BF1437BD4680BC704780B485B000AF56
:1022700078607B681B69FB607B685B687A68926842
:102280009A607B689B687A6852685A60FB685B68F2
:102290007A689A4203D17B689A68FB685A607B68C7
:1022A00000221A61FB681B685A1EFB681A60FB68F3
:1022B0001B6818461437BD4680BC704780B584B093
:1022C00000AF786039607B68FB60FB68002B0AD147
:1022D0004FF0500383F31188BFF36F8FBFF34F8F1D
:1022E000BB6000BFFEE702F0E1F8FB681A68FB681C
:1022F000DB6BF968096C01FB03F31A44FB689A6015
:10230000FB6800229A63FB681A68FB685A60FB68E6
:102310001A68FB68DB6B013BF968096C01FB03F38E
:102320001A44FB68DA60FB68FF2283F84420FB68EC
:10233000FF2283F845203B68002B14D1FB681B6902
:10234000002B1AD0FB681033184601F07FF80346C3
:10235000002B12D00C4B4FF080521A60BFF34F8FFE
:10236000BFF36F8F09E0FB6810331846FFF7F7FEE5
:10237000FB6824331846FFF7F2FE02F0C7F801238A
:1023800018461037BD4680BD04ED00E080B58EB024
:1023900002AFF860B9607A603B60FB68002B0AD13D
:1023A0004FF0500383F31188BFF36F8FBFF34F8F4C
:1023B000BB6200BFFEE73B68002B0AD14FF0500321
:1023C00083F31188BFF36F8FBFF34F8F7B6200BF22
:1023D000FEE77B68002B02D0BB68002B01D00123F5
:1023E00000E00023002B0AD14FF0500383F3118843
:1023F000BFF36F8FBFF34F8F3B6200BFFEE77B6879
:10240000002B02D1BB68002B01D1012300E0002387
:10241000002B0AD14FF0500383F31188BFF36F8F65
:10242000BFF34F8FFB6100BFFEE750237B617B69E9
:10243000502B0AD04FF0500383F31188BFF36F8FF6
:10244000BFF34F8FBB6100BFFEE77B693B68FB6258
:10245000FB6A002B0DD0FB6A012283F8462097F817
:102460003820FB6A009313467A68B968F86800F070
:1024700005F8FB6A18463037BD4680BD80B584B08C
:1024800000AFF860B9607A60FB70BB68002B03D1C5
:10249000BB69BA691A6002E0BB697A681A60BB69F5
:1024A000FA68DA63BB69BA681A640121B869FFF790
:1024B00005FFBB69FA7883F84C2000BF1037BD4692
:1024C00080BD000080B58EB000AFF860B9607A6062
:1024D0003B6000237B63FB683B633B6B002B0AD1B3
:1024E0004FF0500383F31188BFF36F8FBFF34F8F0B
:1024F000BB6200BFFEE7BB68002B03D13B6B1B6CCC
:10250000002B01D1012300E00023002B0AD14FF062
:10251000500383F31188BFF36F8FBFF34F8F7B623C
:1025200000BFFEE73B68022B03D13B6BDB6B012B4B
:1025300001D1012300E00023002B0AD14FF050030A
:1025400083F31188BFF36F8FBFF34F8F3B6200BFE0
:10255000FEE701F039F90346002B02D17B68002B1E
:1025600001D1012300E00023002B0AD14FF05003DA
:1025700083F31188BFF36F8FBFF34F8FFB6100BFF1
:10258000FEE701F093FF3B6B9A6B3B6BDB6B9A4270
:1025900002D33B68022B29D13A68B968386B00F046
:1025A00007FAF8623B6B5B6A002B10D03B6B24335D
:1025B000184600F04BFF0346002B13D03F4B4FF063
:1025C00080521A60BFF34F8FBFF36F8F0AE0FB6A30
:1025D000002B07D0394B4FF080521A60BFF34F8F5A
:1025E000BFF36F8F01F092FF012363E07B68002B44
:1025F00003D101F08BFF00235CE07B6B002B06D145
:1026000007F11403184600F085FF01237B6301F0F6
:102610007DFF00F0FBFC01F049FF3B6B93F8443079
:102620005BB2B3F1FF3F03D13B6B002283F8442040
:102630003B6B93F845305BB2B3F1FF3F03D13B6B8B
:10264000002283F8452001F061FF3A1D07F11403D1
:102650001146184600F074FF0346002B24D1386B56
:1026600000F09EFA0346002B18D03B6B10337A68BB
:102670001146184600F09AFE386B00F029FA00F077
:10268000D3FC0346002B7FF47CAF0C4B4FF0805201
:102690001A60BFF34F8FBFF36F8F72E7386B00F094
:1026A00017FA00F0C1FC6CE7386B00F011FA00F08B
:1026B000BBFC002318463837BD4680BD04ED00E062
:1026C00080B58EB000AFF860B9607A603B60FB689F
:1026D0003B633B6B002B0AD14FF0500383F311880F
:1026E000BFF36F8FBFF34F8F7B6200BFFEE7BB6806
:1026F000002B03D13B6B1B6C002B01D1012300E0AD
:102700000023002B0AD14FF0500383F31188BFF34D
:102710006F8FBFF34F8F3B6200BFFEE73B68022B1A
:1027200003D13B6BDB6B012B01D1012300E00023C4
:10273000002B0AD14FF0500383F31188BFF36F8F42
:10274000BFF34F8FFB6100BFFEE701F071FFEFF3B6
:1027500011824FF0500383F31188BFF36F8FBFF3E3
:102760004F8FBA617B61BB69FB623B6B9A6B3B6BC2
:10277000DB6B9A4202D33B68022B2CD13B6B93F864
:10278000453087F82B303A68B968386B00F010F99B
:1027900097F92B30B3F1FF3F12D13B6B5B6A002BF3
:1027A00016D03B6B2433184600F050FE0346002B36
:1027B0000ED07B68002B0BD07B6801221A6007E0EB
:1027C00097F82B300133DBB25AB23B6B83F84520CC
:1027D00001237B6301E000237B63FB6A3B613B6970
:1027E00083F3118800BF7B6B18463837BD4680BD28
:1027F00080B58CB000AFF860B9607A600023FB62EE
:10280000FB68BB62BB6A002B0AD14FF0500383F315
:102810001188BFF36F8FBFF34F8F3B6200BFFEE79E
:10282000BB68002B03D1BB6A1B6C002B01D10123B9
:1028300000E00023002B0AD14FF0500383F31188EE
:10284000BFF36F8FBFF34F8FFB6100BFFEE700F058
:10285000BBFF0346002B02D17B68002B01D1012373
:1028600000E00023002B0AD14FF0500383F31188BE
:10287000BFF36F8FBFF34F8FBB6100BFFEE701F067
:1028800015FEBB6A9B6B7B627B6A002B1FD0B9680D
:10289000B86A00F0F7F87B6A5A1EBB6A9A63BB6A93
:1028A0001B69002B0FD0BB6A1033184600F0CEFD19
:1028B0000346002B07D03D4B4FF080521A60BFF308
:1028C0004F8FBFF36F8F01F021FE012369E07B681A
:1028D000002B03D101F01AFE002362E0FB6A002BFB
:1028E00006D107F11003184600F014FE0123FB6225
:1028F00001F00CFE00F08AFB01F0D8FDBB6A93F8F2
:1029000044305BB2B3F1FF3F03D1BB6A002283F8CE
:102910004420BB6A93F845305BB2B3F1FF3F03D16B
:10292000BB6A002283F8452001F0F0FD3A1D07F153
:1029300010031146184600F003FE0346002B23D176
:10294000B86A00F017F90346002B17D0BB6A24338E
:102950007A681146184600F029FDB86A00F0B8F808
:1029600000F062FB0346002B89D1104B4FF08052E0
:102970001A60BFF34F8FBFF36F8F80E7B86A00F024
:10298000A7F800F051FB7AE7B86A00F0A1F800F070
:102990004BFBB86A00F0EEF80346002B3FF46FAF34
:1029A000002318463037BD4680BD00BF04ED00E06F
:1029B00080B586B000AFF860B9607A6000237B61B3
:1029C000FB689B6B3B61FB681B6C002B0DD1FB68AC
:1029D0001B68002B4DD1FB689B68184600F012FF66
:1029E0007861FB6800229A6043E07B68002B19D174
:1029F000FB685868FB681B6C1A46B96801F0A4FEB6
:102A0000FB685A68FB681B6C1A44FB685A60FB68D9
:102A10005A68FB689B689A422BD3FB681A68FB686C
:102A20005A6026E0FB68D868FB681B6C1A46B968D8
:102A300001F08AFEFB68DA68FB681B6C5B421A4493
:102A4000FB68DA60FB68DA68FB681B689A4207D2A9
:102A5000FB689A68FB681B6C5B421A44FB68DA608F
:102A60007B68022B05D13B69002B02D03B69013BFF
:102A70003B613B695A1CFB689A637B6918461837AF
:102A8000BD4680BD80B582B000AF786039607B689C
:102A90001B6C002B18D07B68DA687B681B6C1A44AF
:102AA0007B68DA607B68DA687B689B689A4203D34C
:102AB0007B681A687B68DA607B68D9687B681B6C06
:102AC0001A46386801F040FE00BF0837BD4680BD99
:102AD00080B584B000AF786001F0E8FC7B6893F8C3
:102AE0004530FB7311E07B685B6A002B12D07B687A
:102AF0002433184600F0AAFC0346002B01D000F056
:102B000081FDFB7B013BDBB2FB7397F90F30002BA0
:102B1000E9DC00E000BF7B68FF2283F8452001F07C
:102B2000F5FC01F0C3FC7B6893F84430BB7311E003
:102B30007B681B69002B12D07B681033184600F0AD
:102B400085FC0346002B01D000F05CFDBB7B013B04
:102B5000DBB2BB7397F90E30002BE9DC00E000BF5D
:102B60007B68FF2283F8442001F0D0FC00BF1037BF
:102B7000BD4680BD80B584B000AF786001F096FCA2
:102B80007B689B6B002B02D10123FB6001E00023DB
:102B9000FB6001F0BBFCFB6818461037BD4680BDEA
:102BA00080B584B000AF786001F080FC7B689A6BE0
:102BB0007B68DB6B9A4202D10123FB6001E00023BA
:102BC000FB6001F0A3FCFB6818461037BD4680BDD2
:102BD00080B485B000AF786039600023FB6014E0FA
:102BE0000E4AFB6852F83330002B0BD10B49FB68BF
:102BF0003A6841F83320094AFB68DB0013447A68DD
:102C00005A6006E0FB680133FB60FB68072BE7D9DD
:102C100000BF00BF1437BD4680BC70477C00002059
:102C200080B586B000AFF860B9607A60FB687B6100
:102C300001F03CFC7B6993F844305BB2B3F1FF3F99
:102C400003D17B69002283F844207B6993F84530E7
:102C50005BB2B3F1FF3F03D17B69002283F84520CB
:102C600001F054FC7B699B6B002B06D17B692433FC
:102C70007A68B968184600F0BDFB7869FFF728FF4D
:102C800000BF1837BD4680BD80B58EB004AFF86078
:102C9000B9607A603B607B6B002B0AD14FF0500328
:102CA00083F31188BFF36F8FBFF34F8F3B6200BF79
:102CB000FEE7BB6B002B0AD14FF0500383F3118862
:102CC000BFF36F8FBFF34F8FFB6100BFFEE75C2345
:102CD0003B613B695C2B0AD04FF0500383F31188B2
:102CE000BFF36F8FBFF34F8FBB6100BFFEE73B6940
:102CF000BB6B002B1ED07B6B002B1BD0BB6B7B6296
:102D00007B6A7A6B1A637B6A022283F8592000235C
:102D100003937B6A029307F1140301933B6B0093C7
:102D20003B687A68B968F86800F00BF8786A00F0D8
:102D300097F801E000237B617B6918462837BD4680
:102D400080BD80B588B000AFF860B9607A603B6044
:102D50003B6B186B7B689B001A46A52101F002FDB6
:102D60003B6B1A6B7B6803F18043013B9B00134470
:102D7000BB61BB6923F00703BB61BB6903F00703B9
:102D8000002B0AD04FF0500383F31188BFF36F8FED
:102D9000BFF34F8F7B6100BFFEE7BB68002B1FD0E6
:102DA0000023FB6112E0BA68FB69134419783A6B9F
:102DB000FB69134434330A461A70BA68FB6913443A
:102DC0001B78002B06D0FB690133FB61FB690F2BDD
:102DD000E9D900E000BF3B6B002283F8432003E009
:102DE0003B6B002283F83420BB6A372B01D9372391
:102DF000BB623B6BBA6ADA623B6BBA6ADA643B6B02
:102E000000221A653B6B04331846FFF7C7F93B6B8A
:102E100018331846FFF7C2F93B6B3A6B1A61BB6A6D
:102E2000C3F138023B6B9A613B6B3A6B5A623B6B66
:102E300000225A653B6B002283F858203A68F968F3
:102E4000B86901F03FFA02463B6B1A60FB6A002B3F
:102E500002D0FB6A3A6B1A6000BF2037BD4680BDC6
:102E600080B582B000AF786001F020FB2D4B1B686D
:102E700001332C4A13602C4B1B68002B09D12A4AC2
:102E80007B681360274B1B68012B10D100F0DEFB21
:102E90000DE0264B1B68002B09D1234B1B68DA6A17
:102EA0007B68DB6A9A4202D81F4A7B681360204B1A
:102EB0001B6801331E4A13601D4B1A687B685A64F5
:102EC0007B68DA6A1B4B1B689A4203D97B68DB6A12
:102ED000184A13607B68DA6A13469B0013449B0010
:102EE000154A1A447B68043319461046FFF762F905
:102EF00001F00CFB0D4B1B68002B0ED00A4B1B681E
:102F0000DA6A7B68DB6A9A4207D20C4B4FF0805238
:102F10001A60BFF34F8FBFF36F8F00BF0837BD46F6
:102F200080BD00BF90050020BC0000209C05002053
:102F3000AC05002098050020C000002004ED00E052
:102F400080B58AB004AF0023BB6000237B603A46A3
:102F5000391D07F10803184601F0D0F839687B687D
:102F6000BA68029201930023009300230A46214984
:102F70002148FFF789FE0346204A13601F4B1B6858
:102F8000002B02D001237B6101E000237B617B6980
:102F9000012B02D100F0F8FC78617B69012B16D17E
:102FA0004FF0500383F31188BFF36F8FBFF34F8F40
:102FB0003B6100BF124B4FF0FF321A60114B0122F0
:102FC0001A60114B00221A6001F0FEF90EE07B69D5
:102FD000B3F1FF3F0AD14FF0500383F31188BFF3E1
:102FE0006F8FBFF34F8FFB6000BFFEE700BF183746
:102FF000BD4680BDAC4700081D360008B405002062
:10300000B00500209C0500209405002080B400AF8E
:10301000044B1B680133034A136000BFBD4680BCEC
:10302000704700BFB805002080B584B000AF002312
:10303000FB600023BB60424B1B68002B0AD14FF0A2
:10304000500383F31188BFF36F8FBFF34F8F3B6043
:1030500000BFFEE701F02AFA394B1B68013B384AF2
:103060001360374B1B68002B62D1364B1B68002B5B
:103070005ED02FE0344BDB68DB68FB60FB68183305
:103080001846FFF7F2F8FB6804331846FFF7EDF82F
:10309000FB68DA6A2D4B1B689A4203D9FB68DB6A2E
:1030A0002A4A1360FB68DA6A13469B0013449B00AC
:1030B000274A1A44FB68043319461046FFF77AF88A
:1030C000FB68DA6A234B1B68DB6A9A4202D3224B05
:1030D00001221A601C4B1B68002BCBD1FB68002B14
:1030E00001D000F051FB1D4B1B687B607B68002BFF
:1030F00010D000F045F80346002B02D0164B0122F9
:103100001A607B68013B7B607B68002BF1D1134B1D
:1031100000221A60104B1B68002B09D00123BB60F2
:103120000F4B4FF080521A60BFF34F8FBFF36F8F7A
:1031300001F0ECF9BB6818461037BD4680BD00BFF2
:10314000B8050020900500205005002098050020BB
:10315000C0000020BC000020A4050020A005002025
:1031600004ED00E080B483B000AF044B1B687B60CB
:103170007B6818460C37BD4680BC7047940500201C
:1031800080B586B000AF00237B614F4B1B68002BDE
:1031900040F089804D4B1B6801333B614B4A3B69D2
:1031A00013603B69002B20D1494B1B681B68002B27
:1031B0000AD04FF0500383F31188BFF36F8FBFF332
:1031C0004F8F3B6000BFFEE7414B1B68FB60414BEC
:1031D0001B683F4A13603F4AFB6813603E4B1B6805
:1031E00001333D4A136000F0CFFA3C4B1B683A694B
:1031F0009A4249D3364B1B681B68002B04D1374BCE
:103200004FF0FF321A603FE0314B1B68DB68DB6830
:10321000BB60BB685B687B603A697B689A4203D29B
:103220002E4A7B6813602FE0BB6804331846FFF713
:103230001CF8BB689B6A002B04D0BB681833184687
:10324000FFF713F8BB68DA6A254B1B689A4203D96B
:10325000BB68DB6A224A1360BB68DA6A13469B00CC
:1032600013449B001F4A1A44BB6804331946104696
:10327000FEF7A0FFBB68DA6A1B4B1B68DB6A9A4249
:10328000B8D301237B61B5E7174B1B68DA6A154990
:1032900013469B0013449B000B441B68012B07D96A
:1032A00001237B6104E0114B1B6801330F4A13605B
:1032B0000F4B1B68002B01D001237B617B691846F3
:1032C0001837BD4680BD00BFB8050020940500201A
:1032D000480500204C050020A8050020B00500206E
:1032E00098050020C0000020BC000020A0050020A0
:1032F000A405002080B485B000AF274B1B68002BCD
:1033000003D0264B01221A6041E0244B00221A60B0
:10331000234B1B68FB6010E0FB68002B0AD14FF0C9
:10332000500383F31188BFF36F8FBFF34F8F7B6020
:1033300000BFFEE7FB68013BFB601A49FA681346D1
:103340009B0013449B000B441B68002BE4D0FA68DD
:1033500013469B0013449B00124A1344BB60BB6896
:103360005B685A68BB685A60BB685A68BB680833B8
:103370009A4204D1BB685B685A68BB685A60BB68F4
:103380005B68DB68084A1360054AFB68136000BF8E
:103390001437BD4680BC7047B8050020A405002046
:1033A00098050020C0000020BC00002080B584B03B
:1033B00000AF786039607B68002B0AD14FF0500372
:1033C00083F31188BFF36F8FBFF34F8FFB6000BF94
:1033D000FEE7074B1B68183319467868FEF70DFFA8
:1033E0000121386800F07CFA00BF1037BD4680BD6F
:1033F000BC00002080B586B000AFF860B9607A608C
:10340000FB68002B0AD14FF0500383F31188BFF300
:103410006F8FBFF34F8F7B6100BFFEE70A4B1B68C6
:1034200018331946F868FEF7C5FE7B68002B02D0FA
:103430004FF0FF33BB607968B86800F051FA00BF05
:103440001837BD4680BD00BFBC00002080B586B0E7
:1034500000AF78607B68DB68DB683B613B69002B11
:103460000AD14FF0500383F31188BFF36F8FBFF37E
:103470004F8FFB6000BFFEE73B6918331846FEF72D
:10348000F4FE1E4B1B68002B1DD13B69043318460C
:10349000FEF7EBFE3B69DA6A194B1B689A4203D9C7
:1034A0003B69DB6A164A13603B69DA6A13469B0084
:1034B00013449B00134A1A443B69043319461046CF
:1034C000FEF778FE05E03B69183319460E48FEF713
:1034D00071FE3B69DA6A0D4B1B68DB6A9A4205D9BB
:1034E00001237B610A4B01221A6001E000237B610A
:1034F0007B6918461837BD4680BD00BFB80500205F
:1035000098050020C000002050050020BC000020CD
:10351000A405002080B483B000AF7860064B1A6821
:103520007B681A60054B1A687B685A6000BF0C37CD
:10353000BD4680BC704700BFA80500209405002050
:1035400080B588B000AF786039607B68002B0AD105
:103550004FF0500383F31188BFF36F8FBFF34F8F8A
:103560003B6100BFFEE73B68002B0AD14FF05003E0
:1035700083F31188BFF36F8FBFF34F8FFB6000BFE2
:10358000FEE700F093FF1D4B1B68BB617B685B6827
:10359000BA69D31A7B613B681B68B3F1FF3F02D164
:1035A0000023FB6123E07B681A68154B1B689A4275
:1035B00007D07B685B68BA699A4202D30123FB613A
:1035C00015E03B681B687A699A420BD23B681A681F
:1035D0007B69D21A3B681A607868FFF79BFF00236B
:1035E000FB6104E03B6800221A600123FB6100F0EC
:1035F0008DFFFB6918462037BD4680BD940500202D
:10360000A805002080B400AF034B01221A6000BF60
:10361000BD4680BC704700BFA405002080B582B0C5
:1036200000AF786000F052F8064B1B68012BF9D907
:10363000054B4FF080521A60BFF34F8FBFF36F8F6F
:10364000F0E700BFC000002004ED00E080B582B0CC
:1036500000AF00237B600CE07A6813469B001344A4
:103660009B00124A13441846FEF779FD7B6801332C
:103670007B607B68372BEFD90D48FEF770FD0D4856
:10368000FEF76DFD0C48FEF76AFD0C48FEF767FD7E
:103690000B48FEF764FD0B4B054A1A600A4B054ABE
:1036A0001A6000BF0837BD4680BD00BFC0000020C3
:1036B000200500203405002050050020640500206E
:1036C0007C050020480500204C05002080B582B014
:1036D00000AF19E000F0EAFE104BDB68DB687B60AE
:1036E0007B6804331846FEF7C0FD0D4B1B68013B99
:1036F0000B4A13600B4B1B68013B0A4A136000F036
:1037000005FF786800F010F8064B1B68002BE1D12C
:1037100000BF00BF0837BD4680BD00BF6405002064
:10372000900500207805002080B584B000AF786057
:103730007B6893F85930002B08D17B681B6B1846C7
:1037400000F00EFD786800F00BFD18E07B6893F840
:103750005930012B03D1786800F002FD0FE07B683F
:1037600093F85930022B0AD04FF0500383F311889D
:10377000BFF36F8FBFF34F8FFB6000BFFEE700BF4B
:103780001037BD4680BD000080B483B000AF0C4B45
:103790001B681B68002B04D10A4B4FF0FF321A60E4
:1037A00008E0074B1B68DB68DB687B607B685B6855
:1037B000044A136000BF0C37BD4680BC704700BF91
:1037C00048050020B005002080B483B000AF0B4B4B
:1037D0001B68002B02D101237B6008E0084B1B68AB
:1037E000002B02D102237B6001E000237B607B6819
:1037F00018460C37BD4680BC704700BF9C050020B2
:10380000B805002080B586B000AF78607B683B616A
:1038100000237B617B68002B56D02E4B1B683A69D6
:103820009A420AD04FF0500383F31188BFF36F8F91
:10383000BFF34F8FFB6000BFFEE73B691B6D002BA2
:103840000AD14FF0500383F31188BFF36F8FBFF39A
:103850004F8FBB6000BFFEE73B691B6D5A1E3B6983
:103860001A653B69DA6A3B69DB6C9A422CD03B698A
:103870001B6D002B28D13B6904331846FEF7F5FC7D
:103880003B69DA6C3B69DA623B69DB6AC3F1380297
:103890003B699A613B69DA6A0F4B1B689A4203D90C
:1038A0003B69DB6A0C4A13603B69DA6A13469B008A
:1038B00013449B00094A1A443B69043319461046D5
:1038C000FEF778FC01237B617B6918461837BD46FB
:1038D00080BD00BFBC00002098050020C000002073
:1038E00080B584B000AF78603960214B1B68FB6005
:1038F000204B1B6804331846FEF7B7FC7B68B3F116
:10390000FF3F0AD13B68002B07D01A4B1B680433DA
:1039100019461948FEF74EFC26E0FA687B68134406
:10392000BB60144B1B68BA685A60BA68FB689A425D
:1039300009D2124B1A680F4B1B6804331946104604
:10394000FEF75BFC10E00E4B1A680A4B1B68043351
:1039500019461046FEF751FC0A4B1B68BA689A429A
:1039600002D2084ABB68136000BF1037BD4680BD55
:1039700094050020BC0000207C0500204C050020A0
:1039800048050020B005002080B58AB004AF0023B0
:103990007B6100F005FB1C4B1B68002B21D0002332
:1039A000FB600023BB603A1D07F1080107F10C031F
:1039B000184600F0BBFB7968BB68FA680292019375
:1039C0000223009300230A4610491148FFF75CF9CF
:1039D0000346104A13600F4B1B68002B01D00123D4
:1039E0007B617B69002B0AD14FF0500383F3118870
:1039F000BFF36F8FBFF34F8F3B6100BFFEE77B6963
:103A000018461837BD4680BDEC050020B4470008B5
:103A10004D3B0008F005002080B58AB000AFF8608B
:103A2000B9607A603B6000237B62FB68002B0AD19F
:103A30004FF0500383F31188BFF36F8FBFF34F8FA5
:103A40003B6200BFFEE71A4B1B68002B2AD0BB6805
:103A50003B617B687B61FB68BB61BB68052B18DC45
:103A6000FFF7B2FE0346022B09D1114B186807F18C
:103A7000100100233A6BFEF725FD786212E00C4B33
:103A8000186807F1100100230022FEF71BFD786281
:103A900008E0074B186807F1100100233A68FEF7A9
:103AA0000FFE78627B6A18462837BD4680BD00BF8E
:103AB000EC05002080B588B002AF78603960224BF9
:103AC0001B68DB68DB687B617B6904331846FEF7A3
:103AD000CCFB7B6993F8283003F00403002B22D041
:103AE0007B699A697B68D1187B683A68786900F0CD
:103AF000CFF80346002B1FD00023009300237A68E1
:103B000000217869FFF788FF38613B69002B13D1EA
:103B10004FF0500383F31188BFF36F8FBFF34F8FC4
:103B2000FB6000BFFEE77B6993F8283023F00103B8
:103B3000DAB27B6983F828207B691B6A7869984729
:103B400000BF1837BD4680BDE405002080B584B0B5
:103B500000AF786007F10803184600F057F8F860E6
:103B6000BB681946F86800F003F800F0D3F8F1E7F5
:103B700080B584B000AF78603960FFF747FA07F18D
:103B80000803184600F064F8F860BB68002B30D1D9
:103B90003B68002B0AD17A68FB689A4206D8FFF787
:103BA00043FAF9687868FFF785FF24E03B68002B4B
:103BB00008D0134B1B681B68002B01D1012300E0C8
:103BC00000233B600F4B18687A68FB68D31A3A6889
:103BD0001946FFF725F8FFF727FA0346002B0AD10D
:103BE000094B4FF080521A60BFF34F8FBFF36F8FB6
:103BF00001E0FFF719FA00BF1037BD4680BD00BFD6
:103C0000E8050020EC05002004ED00E080B485B05C
:103C100000AF78600D4B1B681B68002B01D101229F
:103C200000E000227B681A607B681B68002B05D1CE
:103C3000064B1B68DB681B68FB6001E00023FB6030
:103C4000FB6818461437BD4680BC7047E405002069
:103C500080B584B000AF7860FFF784FAF8600B4B52
:103C60001B68FA689A4205D200F036F97B68012297
:103C70001A6002E07B6800221A60044AFB68136045
:103C8000FB6818461037BD4680BD00BFF405002014
:103C900080B586B000AFF860B9607A603B60002301
:103CA0007B61FB68BA685A60FB68FA681A61BA6897
:103CB0007B689A4212D87A683B68D21AFB689B6983
:103CC0009A4202D301237B611BE0104B1A68FB6808
:103CD000043319461046FEF790FA12E07A683B6802
:103CE0009A4206D2BA683B689A4202D301237B61AA
:103CF00007E0074B1A68FB68043319461046FEF7C5
:103D00007CFA7B6918461837BD4680BDE80500205F
:103D1000E405002080B58EB002AFCAE07B68002BBE
:103D200018DA3B1D0433FB62FB6A002B0AD14FF00B
:103D3000500383F31188BFF36F8FBFF34F8FFB6185
:103D400000BFFEE7FB6A1B68FA6A5068FA6A92686D
:103D5000114698477B68002BC0F2AA80FB68BB62C3
:103D6000BB6A5B69002B04D0BB6A04331846FEF7BC
:103D70007CFA3B461846FFF76BFF78627B68092B9D
:103D800000F2978001A252F823F000BFB53D000871
:103D9000B53D0008B53D0008293E00083D3E00083D
:103DA000873E0008B53D0008B53D0008293E0008E3
:103DB0003D3E0008BB6A93F8283043F00103DAB2B5
:103DC000BB6A83F82820BA68BB6A9B69D118BB68B4
:103DD0007A6AB86AFFF75CFF0346002B69D0BB6ABA
:103DE0001B6AB86A9847BB6A93F8283003F004034B
:103DF000002B5ED0BA68BB6A9B691A44002300930B
:103E000000230021B86AFFF707FE38623B6A002BE7
:103E10004FD14FF0500383F31188BFF36F8FBFF37F
:103E20004F8FBB6100BFFEE7BB6A93F8283023F0D9
:103E30000103DAB2BB6A83F828203AE0BB6A93F840
:103E4000283043F00103DAB2BB6A83F82820BA684D
:103E5000BB6A9A61BB6A9B69002B0AD14FF0500381
:103E600083F31188BFF36F8FBFF34F8F7B6100BF68
:103E7000FEE7BB6A9A697B6AD1187B6A7A6AB86A7C
:103E8000FFF706FF15E0BB6A93F8283003F0020342
:103E9000002B03D1B86A00F063F90AE0BB6A93F81B
:103EA000283023F00103DAB2BB6A83F8282000E04F
:103EB00000BF084B1B68391D00221846FEF798FC0E
:103EC0000346002B7FF42AAF00BF00BF3037BD464A
:103ED00080BD00BFEC05002080B588B002AF48E08F
:103EE0002D4B1B68DB681B683B612B4B1B68DB6839
:103EF000DB68FB60FB6804331846FEF7B6F9FB6825
:103F00001B6AF8689847FB6893F8283003F00403AD
:103F1000002B2ED0FB689B693A691344BB60BA68DA
:103F20003B699A420ED9FB68BA685A60FB68FA6826
:103F30001A61194B1A68FB68043319461046FEF7DC
:103F40005CF916E00023009300233A690021F86829
:103F5000FFF762FD78607B68002B0AD14FF05003B9
:103F600083F31188BFF36F8FBFF34F8F3B6000BFA8
:103F7000FEE7094B1B681B68002BB1D1064B1B6881
:103F80007B61064B1B68044A1360044A7B6913601B
:103F900000BF1837BD4680BDE4050020E8050020BD
:103FA00080B582B002AF00F081FA154B1B68002B80
:103FB00020D11448FEF7D3F81348FEF7D0F8134B7E
:103FC000104A1A60124B104A1A6000230093114BDA
:103FD000114A10210A20FEF7D9F90346084A136056
:103FE000074B1B68002B05D0054B1B680B49184677
:103FF000FEF7EEFD00F08AFA00BFBD4680BD00BFAF
:10400000EC050020BC050020D0050020E4050020C0
:10401000E805002098060020F8050020BC470008AD
:1040200080B400AF00BFBD4680BC704780B485B08F
:1040300000AFEFF30583BB60BB68002B0FD1EFF33C
:1040400010837B607B68002B05D1EFF311833B600D
:104050003B68002B07D00D4B1B68022B03D16FF080
:104060000503FB600CE0094B1B68002B05D1074BD7
:1040700001221A600023FB6002E04FF0FF33FB6077
:10408000FB6818461437BD4680BC7047E806002020
:1040900080B584B000AFEFF30583BB60BB68002B35
:1040A0000FD1EFF310837B607B68002B05D1EFF31A
:1040B00011833B603B68002B07D00F4B1B68022B22
:1040C00003D16FF00503FB6010E00B4B1B68012B65
:1040D00009D1FFF7A5FF084B02221A60FEF730FF57
:1040E0000023FB6002E04FF0FF33FB60FB681846E3
:1040F0001037BD4680BD00BFE806002080B485B003
:1041000000AFF860B9607A60FB68064A1A60BB6865
:10411000054A1A607B6880221A6000BF1437BD46CA
:1041200080BC7047EC0600204807002080B485B0B2
:1041300000AFF860B9607A60FB68074A1A60BB6834
:10414000064A1A607B684FF480721A6000BF143709
:10415000BD4680BC704700BF48090020A40900206C
:1041600080B586B000AF78607B687B617B68002B90
:1041700048D008235B427A6913447B617B693B61C9
:104180003B695A68214B1B681340002B0AD14FF042
:10419000500383F31188BFF36F8FBFF34F8FFB6022
:1041A00000BFFEE73B691B68002B0AD04FF05003AD
:1041B00083F31188BFF36F8FBFF34F8FBB6000BFD6
:1041C000FEE73B695A68114B1B681340002B19D05E
:1041D0003B691B68002B15D13B695A680B4B1B6868
:1041E000DB431A403B695A60FEF710FF3B695A688F
:1041F000074B1B681344064A1360386900F00AF83D
:10420000FEF712FF00BF1837BD4680BDB40D002079
:10421000B00D002080B485B000AF7860274BFB6004
:1042200002E0FB681B68FB60FB681B687A689A42C7
:10423000F7D8FB68BB60FB685B68BA6813447A68B0
:104240009A4208D1FB685A687B685B681A44FB682D
:104250005A60FB687B607B68BB607B685B68BA68A0
:104260001A44FB681B689A4218D1FB681A68144B01
:104270001B689A420DD07B685A68FB681B685B68B4
:104280001A447B685A60FB681B681A687B681A606E
:1042900008E00B4B1A687B681A6003E0FB681A6839
:1042A0007B681A60FA687B689A4202D0FB687A6879
:1042B0001A6000BF1437BD4680BC7047A40D0020B3
:1042C000AC0D002080B485B000AFF860B9607A60B2
:1042D000FB68043BFB60FB684FF080721A60FB6870
:1042E000043BFB60BB6823F00102FB681A60FB68BB
:1042F000043BFB60084AFB681A60FB68143BFB60E8
:104300007A68FB681A60FB68203BFB60FB68184614
:104310001437BD4680BC70471D43000880B485B08B
:1043200000AF00237B60124B1B68B3F1FF3F0AD044
:104330004FF0500383F31188BFF36F8FBFF34F8F9C
:10434000FB6000BFFEE74FF0500383F31188BFF31B
:104350006F8FBFF34F8FBB6000BF00BF7B68002B28
:10436000FCD000BF00BF1437BD4680BC704700BF03
:104370000C00002000000000000000000000000011
:10438000074B19680868B0E8F00F80F30988BFF39D
:104390006F8F4FF0000080F311884EF00D0E7047C4
:1043A000BC00002000BF00BF06480068006880F322
:1043B000088862B661B6BFF34F8FBFF36F8F00DF1F
:1043C00000BF00BF08ED00E080B584B000AF324B05
:1043D000FB60FB681B78DBB27B60FB68FF221A7016
:1043E000FB681B78DBB2FB70FB78DBB203F0500399
:1043F000DAB22A4B1A702A4B07221A6009E0284BBE
:104400001B68013B264A1360FB78DBB25B00DBB222
:10441000FB70FB78DBB203F08003802BEFD0204BE6
:104420001B68C3F10703042B0AD04FF0500383F33A
:104430001188BFF36F8FBFF34F8FBB6000BFFEE7E4
:10444000174B1B681B02164A1360154B1B6803F4BD
:10445000E063134A13607B68DAB2FB681A70114B91
:104460001B68104A43F4700313600E4B1B680D4A1F
:1044700043F07043136000F0B9F80B4B00221A6050
:10448000FFF792FFFEF736FFFFF748FF00231846BD
:104490001037BD4680BD00BF00E400E0B80D00202D
:1044A000BC0D002020ED00E00C00002080B483B0A3
:1044B00000AF4FF0500383F31188BFF36F8FBFF34A
:1044C0004F8F7B6000BF0F4B1B6801330D4A136099
:1044D0000C4B1B68012B0FD10B4B1B68DBB2002B65
:1044E0000AD04FF0500383F31188BFF36F8FBFF3EF
:1044F0004F8F3B6000BFFEE700BF0C37BD4680BC5E
:10450000704700BF0C00002004ED00E080B483B0D1
:1045100000AF114B1B68002B0AD14FF0500383F3FF
:104520001188BFF36F8FBFF34F8F7B6000BFFEE733
:10453000094B1B68013B084A1360074B1B68002BA3
:1045400005D100233B603B6883F3118800BF00BFA7
:104550000C37BD4680BC70470C00002000000000F6
:10456000EFF30980BFF36F8F0D4B1A6820E9F00F4E
:1045700010602DE908404FF0500080F31188FEF7DD
:10458000B9FE4FF0000080F31188BDE808401968BB
:104590000868B0E8F00F80F30988BFF36F8F7047A9
:1045A000BC00002000BF00BF80B582B000AF4FF05C
:1045B000500383F31188BFF36F8FBFF34F8F7B607E
:1045C00000BFFEF7DDFD0346002B03D0064B4FF086
:1045D00080521A6000233B603B6883F3118800BF60
:1045E00000BF0837BD4680BD04ED00E080B400AFD9
:1045F0000A4B00221A600A4B00221A60094B1B6802
:10460000094AA2FB03239B09084A013B1360034BA1
:1046100007221A6000BFBD4680BC704710E000E072
:1046200018E000E008000020D34D621014E000E024
:1046300080B485B000AFEFF30583FB60FB680F2B00
:1046400014D9164AFB6813441B78FB72144B1B7871
:10465000FA7A9A420AD24FF0500383F31188BFF3DB
:104660006F8FBFF34F8F7B6000BFFEE70D4B1B6862
:1046700003F4E0620C4B1B689A420AD94FF05003D6
:1046800083F31188BFF36F8FBFF34F8F3B6000BF81
:10469000FEE700BF1437BD4680BC7047F0E300E082
:1046A000B80D00200CED00E0BC0D00200D48854643
:1046B000FDF74FFD0C480D490D4A002302E0D45888
:1046C000C4500433C4188C42F9D30A4A0A4C00235C
:1046D00001E013600432A242FBD300F011F8FBF7B3
:1046E00067FDFEE700800020000000201000002091
:1046F0007848000810000020C00D0020FEE70000F0
:1047000070B50D4D0D4C641BA4100026A64209D1B6
:104710000B4D0C4C00F02EF8641BA4100026A64292
:1047200005D170BD55F8043B98470136EEE755F8C2
:10473000043B98470136F2E76848000868480008DB
:10474000684800086C4800080A44914200F1FF33B1
:1047500000D1704710B511F8014B03F8014F914299
:10476000F9D110BD02440346934200D1704703F8CB
:10477000011BF9E7F8B500BFF8BC08BC9E467047BE
:10478000F8B500BFF8BC08BC9E46704700000000AA
:10479000120024003000000006000C001000000091
:1047A00000000000010000000200000049444C45E8
:1047B00000000000546D722053766300546D7251F6
:1047C00000000000010000000300000005000000E0
:1047D0000100000001000000060000000A000000C7
:1047E000200000000200000004000000080000009B
:1047F00010000000400000008000000000010000E8
:1048000000020000000000000000000000000000A6
:104810000000000001000000020000000300000092
:1048200004000000A0860100400D0300801A06006D
:1048300000350C0040420F0080841E0000093D003E
:1048400000127A000024F40000366E010048E801EE
:10485000006CDC020000000000000000000000000E
:08486000000000000000000050
:084868006501000800000000DA
:084870004101000800000000F6
:10487800100000000100000000093D00AAAAAAAA31
:04000005080046ADFC
:00000001FF
