:020000040800F2
:10000000008000207D110008FF02000801030008A5
:1000100003030008050300080703000800000000B0
:1000200000000000000000000000000009030008BC
:100030000B030008000000000D0300080F03000878
:10004000CD110008CD110008CD110008CD11000818
:10005000CD110008CD110008CD110008CD11000808
:10006000CD110008CD110008CD110008CD110008F8
:10007000CD110008CD110008CD110008CD110008E8
:10008000CD110008CD110008CD110008CD110008D8
:10009000CD110008CD110008CD110008CD110008C8
:1000A000CD110008CD110008CD110008CD110008B8
:1000B000CD110008CD110008CD110008CD110008A8
:1000C000CD110008CD110008CD110008CD11000898
:1000D000CD110008CD110008CD110008CD11000888
:1000E000CD110008CD110008CD110008CD11000878
:1000F000CD110008CD110008CD110008CD11000868
:10010000CD110008CD110008CD110008CD11000857
:10011000CD110008CD110008CD110008CD11000847
:10012000CD110008CD110008CD110008CD11000837
:08013000CD110008CD110008FB
:1001380010B5054C237833B9044B13B10448AFF319
:1001480000800123237010BD100000200000000073
:100158002812000808B5034B1BB103490348AFF345
:10016800008008BD000000001400002028120008CC
:100178002DE9F04188B00024039404940594069472
:1001880007944FF0B043DA6C42F00202DA64DA6C9A
:1001980002F002020292029ADA6C42F00402DA6475
:1001A800DA6C02F004020192019ADA6C42F0010260
:1001B800DA64DB6C03F001030093009BDFF89080A6
:1001C80022464FF40A41404600F002FF214E2246E3
:1001D8003821304600F0FCFE4FF40A430393012512
:1001E800049505940227069703A9404600F01EFED1
:1001F80038230393049505944FF00308CDF818802D
:1002080003A9304600F012FECDF80C804FF4041814
:10021800CDF81080059503A94FF0904000F006FE38
:1002280040230393CDF81080059503A9304600F0CC
:10023800FDFD0C2303930497059406940723079365
:1002480003A94FF0904000F0F1FD08B0BDE8F0813F
:10025800000400480008004872B6FEE700B59BB0ED
:100268004822002108A800F0D3FF0023019302933D
:100278000393049305930693079315490A6822F498
:10028800C06242F480620A600A6802F4C0620092A6
:10029800009A202208920122109211936022129251
:1002A800139308A800F05CF970B94F23019300215B
:1002B8000291039104910591079101A800F082FC35
:1002C80020B91BB05DF804FBFFF7C6FFFFF7C4FFBA
:1002D8000004005808B500F00FFFFFF7BFFFFFF755
:1002E80047FF01214FF0904000F077FE4FF4FA707D
:1002F80000F02AFFF5E7FEE7FEE7FEE7FEE7FEE788
:1003080070477047704708B500F00CFF08BD70478C
:10031800024A136843F4807313607047000400585E
:10032800024B186800F4C060704700BF0004005812
:1003380030B589B004468C462A4B93E803000690F2
:10034800ADF81C1003F1080292E803000490ADF820
:10035800141001AD103393E8070085E80700BCF5D9
:10036800007F07D0002314E008AA02EB830353F8A8
:100378001C5C1EE00023022B08D808AA02EB4302EB
:1003880032F8082CA242EFD20133F4E7002510E03E
:100398000133022B0CD808AA02EB430232F8102CC6
:1003A800A242F5D308AA02EB830353F81C5C00E0D1
:1003B80000250D4A136823F007032B43136000F050
:1003C800BDFE0446084B1B6803F00703AB4206D08A
:1003D80000F0B4FE001B0228F4D9032000E000203E
:1003E80009B030BD401200080040005810B5C0F3F5
:1003F80003100C4B53F820404FF0B043D3F80831AA
:1004080003F00F03084A52F82300B4FBF0F4FFF797
:1004180087FF01460548A0FB0430800CFFF788FFE2
:1004280010BD00BF9C1200085C12000883DE1B434D
:100438004FF0B0439968DB6803F0030311F00C0137
:100448000AD00C2906D0042947D008293BD000221D
:10045800104626E0012BF6D14FF0B0431B6813F08D
:1004680008030DD04FF0B0431B6813F0080324D1E4
:100478004FF0B042D2F894202E4A52F823200EE0D2
:100488004FF0B042126812F0080F12D14FF0B0438B
:10049800D3F89430C3F30323264A52F82320D1B16A
:1004A80000204FF0B0439B6803F00C030C2B1AD0CC
:1004B80070474FF0B0421268EEE74FF0B0431B6848
:1004C800C3F30313D8E74FF0B0431A6812F480124D
:1004D80006D11948E5E71046E3E700221748E0E7A8
:1004E80000221648DDE74FF0B043DB6803F0030352
:1004F800022B09D0032B08D14FF0B0431B6813F42B
:10050800801F15D10C4A00E00C4A4FF0B043D86860
:10051800C0F3062000FB02F2D868C0F302100130D5
:10052800B2FBF0F2D868400F0130B2FBF0F0BFE741
:10053800024AEAE79C1200080048E8010024F40097
:1005480008B5FFF775FF4FF0B0439B68C3F303137B
:10055800024A52F82330B0FBF3F008BD5C120008E1
:10056800002800F01183F8B504464FF0B0439D68A9
:1005780005F00C05DE6806F00306036813F0200F8B
:100588002AD0002D65D00C2D61D0236A002B00F0F5
:10059800BF804FF0B042136843F00103136000F0CE
:1005A800CDFD07464FF0B0431B6813F0020F00F073
:1005B800A7804FF0B0431A6842F008021A601A6820
:1005C80022F0F002A16A0A431A60616A5A6822F4AA
:1005D8007F4242EA01225A60236813F0010F00F0BB
:1005E800B580082D00F0AE800C2D00F0A8804FF0EB
:1005F800B042136823F48013A1680B431360636847
:10060800B3F5803F00F0C480B3F5041F00F0C58047
:100618004FF0B0431A6822F480321A601A6822F444
:1006280000121A606368002B00F0C28000F086FD9B
:1006380007464FF0B0431B6813F4003F40F0868034
:1006480000F07CFDC01B6428F3D90320A9E2012E29
:100658009BD1236A002B00F09982A06A4FF0B04327
:100668001B6813F0080F29D04FF0B0431B6803F044
:10067800F00398422AD9FFF7B9FE002840F0888293
:100688004FF0B0431A6842F008021A601A6822F064
:10069800F002A16A0A431A60616A5A6822F47F422A
:1006A80042EA01225A60FFF74BFFBA4B1860BA4B77
:1006B800186800F0F9FC00288ED072E24FF0B043C1
:1006C800D3F894301B0903F0F003D2E74FF0B0439E
:1006D8001A6842F008021A601A6822F0F002A16A49
:1006E8000A431A60616A5A6822F47F4242EA012288
:1006F8005A60A06AFFF77AFE0028D4D0012050E2A1
:1007080000F01CFDC01B02287FF64CAF032048E216
:100718004FF0B042136823F00103136000F00EFDA0
:1007280007464FF0B0431B6813F0020F3FF454AF75
:1007380000F004FDC01B0228F3D9032031E2032E88
:100748007FF455AF6368002B00F02482236813F010
:10075800020F56D0042D3DD00C2D39D02369002B23
:1007680000F08A804FF0B042136843F4807313603E
:1007780000F0E4FC06464FF0B0431B6813F4806FAA
:1007880036D100F0DBFC801B0228F4D9032008E2F4
:10079800136843F48033136044E74FF0B0431A689A
:1007A80042F400121A601A6842F480321A6039E77B
:1007B80000F0C4FC07464FF0B0431B6813F4003F39
:1007C800C4D000F0BBFCC01B6428F4D90320E8E1C6
:1007D800022EC3D12369002B00F0DE8161694FF03E
:1007E800B042536823F0FE4343EA0163536008E0D4
:1007F80061694FF0B042536823F0FE4343EA016356
:100808005360236813F0080F7ED0A369002B62D0D1
:100818004FF0B043D3F89430E16903F010029142ED
:1008280011D003F00302022A00F0B88113F0010F7F
:1008380038D14FF0B042D2F8943023F01003E16978
:100848000B43C2F894304FF0B042D2F8943043F0E2
:100858000103C2F8943000F071FC06464FF0B04333
:10086800D3F8943013F0020F4ED100F067FC801BD0
:100878001128F3D9032094E14FF0B042136823F410
:100888008073136000F05AFC06464FF0B0431B68B3
:1008980013F4806FB5D000F051FC801B0228F4D906
:1008A80003207EE14FF0B042D2F8943023F00103E8
:1008B800C2F8943000F042FC06464FF0B043D3F83B
:1008C800943013F0020FB4D000F038FC801B1128CC
:1008D800F3D9032065E14FF0B042D2F8943023F009
:1008E8000103C2F8943000F029FC06464FF0B043EB
:1008F800D3F8943013F0020F06D000F01FFC801BD1
:100908001128F3D903204CE1236813F0040F00F0F9
:10091800B880224B1B6813F4807F10D1FFF7F8FCD6
:1009280000F00CFC06461D4B1B6813F4807F06D1B3
:1009380000F004FC801B0228F5D9032031E1E368AC
:10094800002B68D0852B01D0052B07D14FF0B04282
:10095800D2F8903043F00403C2F8903000F0EEFB78
:1009680006464FF0B042D2F8903043F00103C2F887
:1009780090304FF0B043D3F8903013F0020F0FD1FE
:1009880000F0DCFB801B41F288339842F1D9032048
:1009980007E100BF08000020040000200004005800
:1009A800E368812B01D0852B1AD100F0C7FB0646DE
:1009B8004FF0B042D2F8903043F08003C2F8903044
:1009C8004FF0B043D3F8903013F4006F59D100F0D2
:1009D800B5FB801B41F288339842F1D90320E0E04F
:1009E80000F0ACFB06464FF0B042D2F8903023F04E
:1009F8008003C2F890304FF0B043D3F8903013F42E
:100A0800006F3ED000F09AFB801B41F28833984279
:100A1800F1D90320C5E000F091FB06464FF0B04243
:100A2800D2F8903023F08003C2F890304FF0B043F2
:100A3800D3F8903013F4006F08D000F07FFB801BD0
:100A480041F288339842F1D90320AAE000F076FBFE
:100A580006464FF0B042D2F8903023F00103C2F8B6
:100A680090304FF0B043D3F8903013F0020F08D015
:100A780000F064FB801B41F288339842F1D90320CF
:100A88008FE0E36A002B00F08B800C2D60D0022BE6
:100A980016D04FF0B042136823F08073136000F053
:100AA8004DFB04464FF0B0431B6813F0007F48D15C
:100AB8004FF0B042D168414B0B40D360002070E04A
:100AC8004FF0B042136823F08073136000F036FBD8
:100AD80005464FF0B0431B6813F0007F2AD14FF052
:100AE800B042D36836491940236B606B0343A06B4F
:100AF80043EA0023E06B0343206C0343606C034329
:100B08000B43D360136843F080731360D36843F0DA
:100B18008053D36000F012FB04464FF0B0431B68CB
:100B280013F0007F3ED100F009FB001B0A28F4D91E
:100B3800032036E000F002FB401B0A28C9D9032035
:100B48002FE000F0FBFA001B0A28ABD9032028E0AD
:100B5800012B29D04FF0B043DB6803F00301226B6F
:100B6800914223D103F07002616B8A4220D103F4D1
:100B7800FE42A16BB2EB012F1CD103F06043626C03
:100B8800934219D100200CE001207047012008E0B1
:100B9800012006E0012004E0012002E0012000E03D
:100BA8000020F8BD0020FCE70120FAE70120F8E763
:100BB8000120F6E70120F4E70120F2E7FCFFFEEE52
:100BC8008C80C111002800F0278170B50C460546BD
:100BD800934B1B6803F007038B422DD32B6813F04C
:100BE800020F3FD12B6813F0200F53D12B6813F05D
:100BF800400F6AD12B6813F0040F40F083802B68F4
:100C080013F0080F40F097802B6813F0010F00F0E5
:100C1800DE806B68022B00F0A880032B00F0AD800B
:100C2800002B40F0B2804FF0B042126812F0020F71
:100C380040F0B1800120EEE0794A136823F0070301
:100C48000B43136000F07AFA0646754B1B6803F0F5
:100C58000703A342C2D000F071FA801B0228F4D91E
:100C68000320D8E0AB684FF0B0418A6822F0F00268
:100C780013438B6000F062FA06464FF0B0439B685E
:100C880013F4803FAED100F059FA801B0228F4D942
:100C98000320C0E06B694FF0B041D1F8082122F081
:100CA800F0021343C1F8083100F048FA06464FF045
:100CB800B043D3F8083113F4003F97D100F03EFA5F
:100CC800801B0228F3D90320A5E0A9694FF0B042A0
:100CD800D2F8083123F00F0343EA1113C2F80831A0
:100CE80000F02CFA06464FF0B043D3F8083113F45D
:100CF800803F7FF47FAF00F021FA801B0228F2D9F1
:100D0800032088E0EB684FF0B0418A6822F4E06283
:100D180013438B6000F012FA06464FF0B0439B680D
:100D280013F4003F7FF46BAF00F008FA801B022831
:100D3800F3D903206FE029694FF0B042936823F498
:100D4800605343EAC103936000F0F8F906464FF098
:100D5800B0439B6813F4802F7FF456AF00F0EEF990
:100D6800801B0228F3D9032055E04FF0B0421268E7
:100D780012F4003F0FD101204DE04FF0B04212684D
:100D880012F0007F07D1012045E04FF0B042126811
:100D980012F4806F42D04FF0B0418A6822F003020B
:100DA80013438B6000F0CAF906464FF0B0439B68C6
:100DB80003F00C036A68B3EB820F08D000F0BEF9A9
:100DC800801B41F288339842EFD9032023E0144B6B
:100DD8001B6803F00703A34215D9114A136823F0CF
:100DE80007032343136000F0A9F905460C4B1B6861
:100DF80003F00703A34206D000F0A0F9401B022825
:100E0800F4D9032007E0FFF79BFB064B1860064B5D
:100E1800186800F049F970BD012070470120FAE711
:100E280000400058080000200400002070B500238E
:100E380069E085685E000324B44025EA0405CC68AF
:100E4800B4402C438460446824EA0C0C4C68C4F316
:100E580000149C4044EA0C04446065E0DD08083551
:100E680050F8256003F007044FEA840C0F2404FAB5
:100E78000CF426EA040E0C6904FA0CF444EA0E0495
:100E880040F8254067E0022400E0002404FA0EF44C
:100E98002C430CF1020C4B4D45F82C404A4C25686C
:100EA800D44325EA0206D1F804C01CF4801F01D0FF
:100EB80042EA0506444D2E606D6804EA0506D1F83D
:100EC80004C01CF4001F01D042EA05063E4D6E60C6
:100ED800D5F8805004EA0506D1F804C01CF4803F18
:100EE80001D042EA0506384DC5F88060D5F884502F
:100EF8002C404E6816F4003F01D042EA0504324AFD
:100F0800C2F8844001330A6832FA03F458D04FF02B
:100F1800010C0CFA03FC1CEA0202F3D04C6804F042
:100F28000304013C012C84D94C6804F00304032C0D
:100F38000CD0C4685D004FF0030C0CFA05FC24EAE1
:100F48000C0C8C68AC4044EA0C04C4604C6804F097
:100F58000304022C82D004684FEA430E4FF0030CBE
:100F68000CFA0EFC24EA0C0C4C6804F0030404FA96
:100F78000EF444EA0C0404604C6814F4403FC1D0F9
:100F88004FEA930C0CF102050E4C54F8255003F06F
:100F980003044FEA840E072404FA0EF425EA040534
:100FA800B0F1904F3FF471AF084CA04206D004F561
:100FB8008064A0423FF467AF072467E7012465E730
:100FC80070BD00BF00000140000800580004004840
:100FD8000AB18161704781627047436901EA03027F
:100FE80021EA030141EA024181617047074AD36857
:100FF80023F4E0631B041B0C000200F4E0600343CD
:1010080043F0BF6343F40033D360704700ED00E062
:1010180000B5194BDB68C3F30223C3F1070CBCF11D
:10102800040F28BF4FF0040C03F1040EBEF1060FA5
:1010380018D9033B4FF0FF3E0EFA0CFC21EA0C01D5
:1010480099400EFA03F322EA0303194300280BDB45
:101058000901C9B200F1604000F5614080F8001351
:101068005DF804FB0023E5E700F00F000901C9B2B1
:10107800024B1954F4E700BF00ED00E014ED00E066
:101088000138B0F1807F0BD24FF0E0235861054A58
:10109800F02182F823100020986107221A61704716
:1010A8000120704700ED00E0114B1B780BB90120BF
:1010B800704710B50446FFF743FA0D4B1A784FF402
:1010C8007A73B3FBF2F3B0FBF3F0FFF7D9FF68B91B
:1010D8000F2C01D901200AE0002221464FF0FF30F1
:1010E800FFF796FF034B1C60002000E0012010BDB5
:1010F800000000200400002010B50320FFF776FF51
:10110800FFF71EFA064B18600020FFF7CDFF10B15D
:101118000124204610BD0446FFF7F9F8F9E700BF9F
:1011280008000020034B1B78034A11680B44136026
:10113800704700BF000000202C000020014B1868F9
:10114800704700BF2C00002038B50446FFF7F6FFB3
:101158000546B4F1FF3F02D0044B1B781C44FFF74F
:10116800EDFF401BA042FAD338BD00BF00000020AD
:10117800704700000D488546FFF7FAFF0C480D49F7
:101188000D4A002302E0D458C4500433C4188C42DA
:10119800F9D30A4A0A4C002301E013600432A24240
:1011A800FBD300F011F8FFF795F8FEE70080002068
:1011B8000000002010000020F0120008100000209D
:1011C80030000020FEE7000070B50D4D0D4C641B8B
:1011D800A4100026A64209D10B4D0C4C00F020F8B3
:1011E800641BA4100026A64205D170BD55F8043B27
:1011F80098470136EEE755F8043B98470136F2E781
:10120800E0120008E0120008E0120008E4120008EA
:1012180002440346934200D1704703F8011BF9E7E3
:10122800F8B500BFF8BC08BC9E467047F8B500BFCB
:08123800F8BC08BC9E4670479B
:10124000120024003000000006000C001000000016
:10125000000000000100000002000000010000008A
:101260000300000005000000010000000100000074
:10127000060000000A00000020000000020000003C
:101280000400000008000000100000004000000002
:10129000800000000001000000020000A0860100A4
:1012A000400D0300801A060000350C0040420F007C
:1012B00080841E0000093D0000127A000024F40022
:1012C00000366E010048E801006CDC0200000000FE
:1012D000000000000000000000000000000000000E
:0812E0005D01000800000000A0
:0812E8003901000800000000BC
:1012F000010000001000000000093D000000000097
:040000050800117D61
:00000001FF
