:020000040800F2
:1000000000800020E93500087D0400087F04000816
:100010008104000883040008850400080000000033
:10002000000000000000000000000000C1320008D5
:10003000870400080000000061330008A5330008B1
:1000400039360008393600083936000839360008D4
:1000500039360008393600083936000839360008C4
:1000600039360008393600083936000839360008B4
:1000700039360008393600083936000839360008A4
:100080003936000839360008393600083936000894
:100090003936000839360008393600083936000884
:1000A0003936000839360008393600083936000874
:1000B0003936000889040008393600083936000846
:1000C0003936000839360008393600083936000854
:1000D0003936000839360008393600083936000844
:1000E0003936000839360008393600083936000834
:1000F0003936000839360008393600083936000824
:100100003936000839360008393600083936000813
:100110003936000839360008393600083936000803
:1001200039360008393600083936000839360008F3
:080130003936000839360008D9
:1001400010B5054C237833B9044B13B10448AFF311
:1001500000800123237010BD780000200000000003
:10016000B446000808B5034B1BB103490348AFF37D
:10017000008008BD000000007C000020B44600089C
:1001800001F0FF01102A2BDB10F0070F08D010F848
:10019000013B013A8B422DD010F0070F42B3F6D14C
:1001A000F0B441EA012141EA014122F007047FF065
:1001B00000070023F0E80256083C85EA010586EABC
:1001C000010685FA47F5A3FA87F586FA47F6A5FAF8
:1001D00087F68EB9EED1F0BC01F0FF0102F0070204
:1001E00032B110F8013B013A83EA010313B1F8D1AF
:1001F0000020704701387047002D06BF3546033890
:10020000073815F0010F07D1013015F4807F02BFC8
:10021000013015F4C03F0130F0BC0138704700BF19
:1002200010B588B0002403940494059406940794B0
:100230004FF0B043DA6C42F00402DA64DA6C02F098
:1002400004020292029ADA6C42F00102DA64DA6C79
:1002500002F001020192019ADA6C42F00202DA64C1
:10026000DB6C03F002030093009B0C230393022337
:1002700004930723079303A94FF0904000F014FF65
:100280004FF402430393012304930594069403A9B6
:10029000024800F009FF08B010BD00BF000400488C
:1002A00008B54FF400410A4800F0D0FF094803F0B8
:1002B0008BFA1121084B186802F050FE01460748DE
:1002C00003F0FCF94FF4FA6002F041FEE9E700BFE9
:1002D00000040048EC460008940000200C47000889
:1002E00010B584B006E0134803F06EFA02E012483D
:1002F00003F06AFA4FF40071104800F0A7FF1048AD
:1003000003F062FA4FF0FF32032101A802F058FE19
:10031000019B082BEBD1029C21460A4803F0CEF941
:10032000002CE0D0084803F04FFA2146054803F0BE
:10033000C5F9DFE7B4470008D847000800040048C3
:1003400040470008644700088847000800B59BB094
:100350004822002108A803F0A9F900230193029381
:100360000393049305930693079316490A6822F4AE
:10037000C06242F480620A600A6802F4C0620092BD
:10038000009A202208920122109211936022129268
:10039000139308A800F0E8F970B94F2301930021E6
:1003A0000291039104910591079101A800F00EFDBF
:1003B00028B91BB05DF804FB03F014F9EDE703F076
:1003C00011F9F6E70004005808B50268034B9A4299
:1003D00000D008BD00F0C2FFFBE700BF00480140AD
:1003E00000B1704708B5034803F0EEF903F0FAF8DE
:1003F00008BD00BFF447000808B500F099FFFFF7FB
:10040000A5FFFFF70DFF00210B4802F06BFD0B4B22
:10041000186050B100210A4802F064FD094B1860D1
:10042000FFF7DEFF02F059FDFEE7074803F046F94B
:1004300003F0D8F8EEE700BFB448000898000020A9
:10044000984800089400002044480008034B0360CB
:10045000034B0B6080231360704700BF9C02002099
:100460009C000020034B0360034B0B604FF4807330
:1004700013607047F0060020F0020020FEE7FEE760
:10048000FEE7FEE7FEE7704708B5024800F0B0FF60
:1004900008BD00BF4407002008B500220F216FF0FF
:1004A000010000F0FFFE08BD30B58BB004464FF0F0
:1004B000B0431A6E42F480221A661B6E03F4802346
:1004C0000193019B02A903A800F0C4FD00F0B2FD56
:1004D00003461548A0FB03239B0C013B1348144A19
:1004E000026040F2E732C260436000230361836030
:1004F00001F084F8054610B128460BB030BD0B481A
:1005000000F040FF05460028F6D11D2000F002FF54
:100510000F2C01D90125EFE7002221461D2000F014
:10052000C1FE044B1C60E7E783DE1B434407002049
:10053000004801400400002030B589B004468C46D4
:100540002A4B93E803000690ADF81C1003F1080253
:1005500092E803000490ADF8141001AD103393E855
:10056000070085E80700BCF5007F07D0002314E0F2
:1005700008AA02EB830353F81C5C1EE00023022B45
:1005800008D808AA02EB430232F8082CA242EFD2A4
:100590000133F4E7002510E00133022B0CD808AA40
:1005A00002EB430232F8102CA242F5D308AA02EB68
:1005B000830353F81C5C00E000250D4A136823F008
:1005C00007032B43136000F0D5FE0446084B1B685D
:1005D00003F00703AB4206D000F0CCFE001B02285C
:1005E000F4D9032000E0002009B030BDD046000857
:1005F0000040005810B5C0F303100C4B53F82040D6
:100600004FF0B043D3F8083103F00F03084A52F813
:100610002300B4FBF0F400F02BFE01460548A0FBDC
:100620000430800CFFF788FF10BD00BF3049000880
:10063000D048000883DE1B434FF0B0439968DB6865
:1006400003F0030311F00C010AD00C2906D0042991
:1006500047D008293BD00022104626E0012BF6D1D6
:100660004FF0B0431B6813F008030DD04FF0B043B8
:100670001B6813F0080324D14FF0B042D2F8942045
:100680002E4A52F823200EE04FF0B042126812F0CA
:10069000080F12D14FF0B043D3F89430C3F30323C3
:1006A000264A52F82320D1B100204FF0B0439B6876
:1006B00003F00C030C2B1AD070474FF0B0421268B5
:1006C000EEE74FF0B0431B68C3F30313D8E74FF0D6
:1006D000B0431A6812F4801206D11948E5E71046B3
:1006E000E3E700221748E0E700221648DDE74FF075
:1006F000B043DB6803F00303022B09D0032B08D1BE
:100700004FF0B0431B6813F4801F15D10C4A00E072
:100710000C4A4FF0B043D868C0F3062000FB02F249
:10072000D868C0F302100130B2FBF0F2D868400F75
:100730000130B2FBF0F0BFE7024AEAE730490008B7
:100740000048E8010024F40008B5FFF775FF4FF0FA
:10075000B0439B68C3F30313024A52F82330B0FB43
:10076000F3F008BDD0480008002800F01183F8B568
:1007700004464FF0B0439D6805F00C05DE6806F0B6
:100780000306036813F0200F2AD0002D65D00C2D2E
:1007900061D0236A002B00F0BF804FF0B042136895
:1007A00043F00103136000F0E5FD07464FF0B0434E
:1007B0001B6813F0020F00F0A7804FF0B0431A68D7
:1007C00042F008021A601A6822F0F002A16A0A4395
:1007D0001A60616A5A6822F47F4242EA01225A6032
:1007E000236813F0010F00F0B580082D00F0AE80F3
:1007F0000C2D00F0A8804FF0B042136823F4801352
:10080000A1680B4313606368B3F5803F00F0C480B8
:10081000B3F5041F00F0C5804FF0B0431A6822F40E
:1008200080321A601A6822F400121A606368002B82
:1008300000F0C28000F09EFD07464FF0B0431B68F9
:1008400013F4003F40F0868000F094FDC01B642844
:10085000F3D90320A9E2012E9BD1236A002B00F0DB
:100860009982A06A4FF0B0431B6813F0080F29D09B
:100870004FF0B0431B6803F0F00398422AD9FFF70A
:10088000B9FE002840F088824FF0B0431A6842F069
:1008900008021A601A6822F0F002A16A0A431A607C
:1008A000616A5A6822F47F4242EA01225A60FFF7E5
:1008B0004BFFBA4B1860BA4B1868FFF7F5FD0028DC
:1008C0008ED072E24FF0B043D3F894301B0903F09E
:1008D000F003D2E74FF0B0431A6842F008021A6002
:1008E0001A6822F0F002A16A0A431A60616A5A6823
:1008F00022F47F4242EA01225A60A06AFFF77AFEA0
:100900000028D4D0012050E200F034FDC01B0228A2
:100910007FF64CAF032048E24FF0B042136823F05B
:100920000103136000F026FD07464FF0B0431B683B
:1009300013F0020F3FF454AF00F01CFDC01B02285F
:10094000F3D9032031E2032E7FF455AF6368002B07
:1009500000F02482236813F0020F56D0042D3DD0FE
:100960000C2D39D02369002B00F08A804FF0B04263
:10097000136843F48073136000F0FCFC06464FF0EC
:10098000B0431B6813F4806F36D100F0F3FC801B7A
:100990000228F4D9032008E2136843F4803313607B
:1009A00044E74FF0B0431A6842F400121A601A6824
:1009B00042F480321A6039E700F0DCFC07464FF061
:1009C000B0431B6813F4003FC4D000F0D3FCC01B3D
:1009D0006428F4D90320E8E1022EC3D12369002B57
:1009E00000F0DE8161694FF0B042536823F0FE43AE
:1009F00043EA0163536008E061694FF0B042536815
:100A000023F0FE4343EA01635360236813F0080FA9
:100A10007ED0A369002B62D04FF0B043D3F894305E
:100A2000E16903F01002914211D003F00302022A9F
:100A300000F0B88113F0010F38D14FF0B042D2F876
:100A4000943023F01003E1690B43C2F894304FF067
:100A5000B042D2F8943043F00103C2F8943000F071
:100A600089FC06464FF0B043D3F8943013F0020FE0
:100A70004ED100F07FFC801B1128F3D9032094E1B4
:100A80004FF0B042136823F48073136000F072FCDF
:100A900006464FF0B0431B6813F4806FB5D000F0EA
:100AA00069FC801B0228F4D903207EE14FF0B0429C
:100AB000D2F8943023F00103C2F8943000F05AFCCD
:100AC00006464FF0B043D3F8943013F0020FB4D081
:100AD00000F050FC801B1128F3D9032065E14FF092
:100AE000B042D2F8943023F00103C2F8943000F001
:100AF00041FC06464FF0B043D3F8943013F0020F98
:100B000006D000F037FC801B1128F3D903204CE1FC
:100B1000236813F0040F00F0B880224B1B6813F415
:100B2000807F10D100F09CFB00F024FC06461D4B9A
:100B30001B6813F4807F06D100F01CFC801B022888
:100B4000F5D9032031E1E368002B68D0852B01D073
:100B5000052B07D14FF0B042D2F8903043F0040398
:100B6000C2F8903000F006FC06464FF0B042D2F8D2
:100B7000903043F00103C2F890304FF0B043D3F807
:100B8000903013F0020F0FD100F0F4FB801B41F204
:100B900088339842F1D9032007E100BF0800002004
:100BA0000400002000040058E368812B01D0852B4D
:100BB0001AD100F0DFFB06464FF0B042D2F8903079
:100BC00043F08003C2F890304FF0B043D3F8903038
:100BD00013F4006F59D100F0CDFB801B41F2883334
:100BE0009842F1D90320E0E000F0C4FB06464FF044
:100BF000B042D2F8903023F08003C2F890304FF02A
:100C0000B043D3F8903013F4006F3ED000F0B2FB45
:100C1000801B41F288339842F1D90320C5E000F0EF
:100C2000A9FB06464FF0B042D2F8903023F0800383
:100C3000C2F890304FF0B043D3F8903013F4006F07
:100C400008D000F097FB801B41F288339842F1D91D
:100C50000320AAE000F08EFB06464FF0B042D2F827
:100C6000903023F00103C2F890304FF0B043D3F836
:100C7000903013F0020F08D000F07CFB801B41F293
:100C800088339842F1D903208FE0E36A002B00F00B
:100C90008B800C2D60D0022B16D04FF0B042136821
:100CA00023F08073136000F065FB04464FF0B043FF
:100CB0001B6813F0007F48D14FF0B042D168414B20
:100CC0000B40D360002070E04FF0B042136823F077
:100CD0008073136000F04EFB05464FF0B0431B6875
:100CE00013F0007F2AD14FF0B042D3683649194043
:100CF000236B606B0343A06B43EA0023E06B034369
:100D0000206C0343606C03430B43D360136843F0D0
:100D100080731360D36843F08053D36000F02AFBE4
:100D200004464FF0B0431B6813F0007F3ED100F043
:100D300021FB001B0A28F4D9032036E000F01AFB3F
:100D4000401B0A28C9D903202FE000F013FB001B29
:100D50000A28ABD9032028E0012B29D04FF0B0435B
:100D6000DB6803F00301226B914223D103F0700290
:100D7000616B8A4220D103F4FE42A16BB2EB012FDA
:100D80001CD103F06043626C934219D100200CE047
:100D900001207047012008E0012006E0012004E066
:100DA000012002E0012000E00020F8BD0020FCE767
:100DB0000120FAE70120F8E70120F6E70120F4E737
:100DC0000120F2E7FCFFFEEE8C80C111002800F04C
:100DD000278170B50C460546934B1B6803F007034B
:100DE0008B422DD32B6813F0020F3FD12B6813F0E9
:100DF000200F53D12B6813F0400F6AD12B6813F0EA
:100E0000040F40F083802B6813F0080F40F09780A8
:100E10002B6813F0010F00F0DE806B68022B00F0EE
:100E2000A880032B00F0AD80002B40F0B2804FF083
:100E3000B042126812F0020F40F0B1800120EEE0E3
:100E4000794A136823F007030B43136000F092FA0A
:100E50000646754B1B6803F00703A342C2D000F09F
:100E600089FA801B0228F4D90320D8E0AB684FF040
:100E7000B0418A6822F0F00213438B6000F07AFAE6
:100E800006464FF0B0439B6813F4803FAED100F0AC
:100E900071FA801B0228F4D90320C0E06B694FF07F
:100EA000B041D1F8082122F0F0021343C1F8083113
:100EB00000F060FA06464FF0B043D3F8083113F45F
:100EC000003F97D100F056FA801B0228F3D9032087
:100ED000A5E0A9694FF0B042D2F8083123F00F0322
:100EE00043EA1113C2F8083100F044FA06464FF005
:100EF000B043D3F8083113F4803F7FF47FAF00F0A4
:100F000039FA801B0228F2D9032088E0EB684FF001
:100F1000B0418A6822F4E06213438B6000F02AFA41
:100F200006464FF0B0439B6813F4003F7FF46BAF6D
:100F300000F020FA801B0228F3D903206FE0296912
:100F40004FF0B042936823F4605343EAC1039360C7
:100F500000F010FA06464FF0B0439B6813F4802F60
:100F60007FF456AF00F006FA801B0228F3D9032065
:100F700055E04FF0B042126812F4003F0FD101204B
:100F80004DE04FF0B042126812F0007F07D101200F
:100F900045E04FF0B042126812F4806F42D04FF03B
:100FA000B0418A6822F0030213438B6000F0E2F93B
:100FB00006464FF0B0439B6803F00C036A68B3EB3E
:100FC000820F08D000F0D6F9801B41F28833984296
:100FD000EFD9032023E0144B1B6803F00703A3425F
:100FE00015D9114A136823F007032343136000F057
:100FF000C1F905460C4B1B6803F00703A34206D05A
:1010000000F0B8F9401B0228F4D9032007E0FFF7ED
:101010009BFB064B1860064B1868FFF745FA70BD3E
:10102000012070470120FAE7004000580800002026
:101030000400002008B5FFF787FB4FF0B0439B6822
:10104000C3F3C223024A52F82330D84008BD00BF80
:101050001049000820B3034611B310B44F220260B8
:101060006F2202604FF0B040826802F00C045C60B6
:1010700002F0F0049C6002F4E064DC6002F4605270
:101080001A61D0F8082102F0F00058611201D2B2C2
:101090009A61044B1B6803F007030B6010BC704798
:1010A000704700BF0040005870B5002369E08568B4
:1010B0005E000324B44025EA0405CC68B4402C4308
:1010C0008460446824EA0C0C4C68C4F300149C400F
:1010D00044EA0C04446065E0DD08083550F82560FA
:1010E00003F007044FEA840C0F2404FA0CF426EAF8
:1010F000040E0C6904FA0CF444EA0E0440F825408E
:1011000067E0022400E0002404FA0EF42C430CF102
:10111000020C4B4D45F82C404A4C2568D44325EA37
:101120000206D1F804C01CF4801F01D042EA050673
:10113000444D2E606D6804EA0506D1F804C01CF425
:10114000001F01D042EA05063E4D6E60D5F8805082
:1011500004EA0506D1F804C01CF4803F01D042EA3D
:101160000506384DC5F88060D5F884502C404E688F
:1011700016F4003F01D042EA0504324AC2F8844026
:1011800001330A6832FA03F458D04FF0010C0CFA1C
:1011900003FC1CEA0202F3D04C6804F00304013C97
:1011A000012C84D94C6804F00304032C0CD0C468CF
:1011B0005D004FF0030C0CFA05FC24EA0C0C8C6863
:1011C000AC4044EA0C04C4604C6804F00304022CF4
:1011D00082D004684FEA430E4FF0030C0CFA0EFC69
:1011E00024EA0C0C4C6804F0030404FA0EF444EAFC
:1011F0000C0404604C6814F4403FC1D04FEA930CD7
:101200000CF102050E4C54F8255003F003044FEA8C
:10121000840E072404FA0EF425EA0405B0F1904F79
:101220003FF471AF084CA04206D004F58064A042A0
:101230003FF467AF072467E7012465E770BD00BF8F
:10124000000001400008005800040048436901EA1A
:10125000030221EA030141EA024181617047000073
:10126000024A136843F48073136070470004005807
:10127000024B186800F4C060704700BF00040058BB
:10128000074AD36823F4E0631B041B0C000200F43C
:10129000E060034343F0BF6343F40033D36070471F
:1012A00000ED00E000B5194BDB68C3F30223C3F186
:1012B000070CBCF1040F28BF4FF0040C03F1040E1F
:1012C000BEF1060F18D9033B4FF0FF3E0EFA0CFC9F
:1012D00021EA0C0199400EFA03F322EA03031943B1
:1012E00000280BDB0901C9B200F1604000F5614044
:1012F00080F800135DF804FB0023E5E700F00F0021
:101300000901C9B2024B1954F4E700BF00ED00E037
:1013100014ED00E0002807DB00F01F024009012364
:101320009340024A42F82030704700BF00E100E0DD
:1013300010B50320FFF7A4FFFFF706FA064B18606D
:101340000F20FFF7B1F810B10124204610BD04466C
:10135000FFF7A2F8F9E700BF08000020034B1B7855
:10136000034A11680B441360704700BF000000205F
:1013700090070020014B1868704700BF90070020BD
:101380007047000090F83D30DBB2012B22D10223E0
:1013900080F83D300268D36843F00103D3600368EE
:1013A0000F4A934208D0B3F1804F05D01A6842F03B
:1013B00001021A600020704799680A4A0A40062A0A
:1013C0000AD0B2F5803F09D01A6842F001021A60D3
:1013D00000207047012070470020704700207047B0
:1013E000002C0140070001007047704770477047AC
:1013F00010B5044603681A6912F0020F11D0DA68BA
:1014000012F0020F0DD06FF002021A610123037770
:1014100003689B6913F0030F79D0FFF7E6FF002301
:10142000237723681A6912F0040F12D0DA6812F0D9
:10143000040F0ED06FF004021A6102232377236891
:101440009B6913F4407F68D02046FFF7CEFF00234E
:10145000237723681A6912F0080F12D0DA6812F0A5
:10146000080F0ED06FF008021A6104232377236857
:10147000DB6913F0030F57D02046FFF7B6FF0023B8
:10148000237723681A6912F0100F12D0DA6812F06D
:10149000100F0ED06FF010021A6108232377236813
:1014A000DB6913F4407F46D02046FFF79EFF002300
:1014B000237723681A6912F0010F03D0DA6812F05B
:1014C000010F3FD123681A6912F0800F03D0DA6848
:1014D00012F0800F3DD123681A6912F4807F03D087
:1014E000DA6812F0800F3BD123681A6912F0400FBE
:1014F00003D0DA6812F0400F39D123681A6912F06C
:10150000200F03D0DA6812F0200F37D110BDFFF79B
:101510006BFF2046FFF76AFF81E72046FFF764FF75
:101520002046FFF763FF92E72046FFF75DFF204666
:10153000FFF75CFFA3E72046FFF756FF2046FFF7C3
:1015400055FFB4E76FF001021A612046FEF73CFF39
:10155000B8E76FF080021A61204600F080F8BAE721
:101560006FF480721A61204600F07AF8BCE76FF0E1
:1015700040021A612046FFF73AFFBEE76FF02002F3
:101580001A61204600F06AF8C0E7000003681A4AB2
:10159000904202D0B0F1804F03D123F070034A682B
:1015A0001343154A90420AD0B0F1804F07D002F59C
:1015B000C052904203D002F58062904203D123F4DE
:1015C0004073CA68134323F080034A6913430360DE
:1015D0008B68C3620B688362074B984207D003F5A0
:1015E000C053984203D003F58063984201D10B6940
:1015F0000363012343617047002C014060B310B5C1
:10160000044690F83D3013B3022384F83D30214660
:1016100051F8040BFFF7BAFF012384F8483084F82F
:101620003E3084F83F3084F8403084F8413084F80C
:10163000423084F8433084F8443084F8453084F8EC
:10164000463084F8473084F83D30002010BD80F8E3
:101650003C30FFF795FED7E7012070477047704791
:101660007047704700F1080343604FF0FF3282601B
:10167000C360036100230360704700230361704768
:1016800043684B609A688A6051609960086103689A
:1016900001330360704730B40D68B5F1FF3F11D0DE
:1016A00000F108031C465B681A68AA42FAD963680D
:1016B0004B6099608C60616008610368013303606E
:1016C00030BC70470469F2E70369416882688A6048
:1016D000416851605A68824206D0002202611A684D
:1016E000013A1A601868704782685A60F5E710B5C9
:1016F000044601F0F7FDA26BE36B9A4204D000248C
:1017000001F012FE204610BD0124F9E710B5044691
:1017100001F0E8FDA36B23B9012401F005FE20468A
:1017200010BD0024F9E770B504461546866B026CBF
:101730005AB903681BB100200136A66370BD8068EA
:1017400000F0DEFF0023A360F6E76DB9406801F00A
:101750009FFF226C636813446360A268934219D3AD
:10176000236863602846E7E7C06801F091FF226CB8
:101770005142E3689B1AE3602268934202D2A36855
:101780000B44E360022D01D00020D5E726B1013ED5
:101790000020D1E72846CFE70020CDE708B5034673
:1017A000026C62B10846D9681144D960D3F808C008
:1017B000614501D31968D960D96801F069FF08BD96
:1017C00038B5054601F08EFD95F8454064B201E05C
:1017D000013C64B2002C0ADD6B6A43B105F12400C0
:1017E00000F0E4FE0028F3D000F074FFF0E7FF23E0
:1017F00085F8453001F098FD01F074FD95F84440FE
:1018000064B201E0013C64B2002C0ADD2B6943B1F3
:1018100005F1100000F0CAFE0028F3D000F05AFFD6
:10182000F0E7FF2385F8443001F07EFD38BD38B580
:10183000E0B10D46044601F055FD2368E26B216CD2
:1018400001FB0230A0600020A0636360013A02FB4C
:101850000133E360FF2384F8443084F84530FDB958
:10186000236963B901F060FD012038BD4FF05003DA
:1018700083F31188BFF36F8FBFF34F8FFEE704F13F
:10188000100000F093FE0028ECD04FF0E0234FF062
:101890008052C3F8042DBFF34F8FBFF36F8FE1E782
:1018A00004F11000FFF7DEFE04F12400FFF7DAFE7A
:1018B000D8E710B5034602980C4631B90060C363FF
:1018C00004640121FFF7B3FF10BD0260F7E740B9E0
:1018D0004FF0500383F31188BFF36F8FBFF34F8F27
:1018E000FEE710B584B01C46844653B192B189B965
:1018F0004FF0500383F31188BFF36F8FBFF34F8F07
:10190000FEE74FF0500383F31188BFF36F8FBFF3EF
:101910004F8FFEE76AB148230393039B482B13D0F4
:101920004FF0500383F31188BFF36F8FBFF34F8FD6
:10193000FEE70029EFD04FF0500383F31188BFF387
:101940006F8FBFF34F8FFEE7039B012384F8463070
:1019500000949DF818306046FFF7ABFF204604B0B6
:1019600010BDF0B585B0019288B10F461D46044602
:10197000B1B1022D20D1E36B012B1DD04FF05003EC
:1019800083F31188BFF36F8FBFF34F8FFEE74FF0E4
:10199000500383F31188BFF36F8FBFF34F8FFEE7C0
:1019A000036C002BE5D04FF0500383F31188BFF395
:1019B0006F8FBFF34F8FFEE700F092FE064658B9D7
:1019C000019B002B48D04FF0500383F31188BFF3E5
:1019D0006F8FBFF34F8FFEE700263DE02A46394662
:1019E0002046FFF7A0FE636A7BB948B14FF0E023C1
:1019F0004FF08052C3F8042DBFF34F8FBFF36F8FAA
:101A000001F092FC012005B0F0BD04F1240000F0CB
:101A1000CDFD0028F4D04FF0E0234FF08052C3F802
:101A2000042DBFF34F8FBFF36F8FE9E701F07CFC0C
:101A30000020E8E702A800F0FFFD012619E00023DE
:101A400084F8443021E0002384F8453023E0204628
:101A5000FFF7B6FE00F088FC01F044FCA26BE36BDC
:101A60009A42BBD3022DB9D0019B002BDED0002EB1
:101A7000E0D001F059FC00F0DDFB01F033FC94F8FC
:101A8000442052B2B2F1FF3FD9D094F8452052B26F
:101A9000B2F1FF3FD7D001F047FC01A902A800F046
:101AA000D7FDD8B92046FFF722FE0028CFD00199F4
:101AB00004F1100000F046FD2046FFF781FE00F023
:101AC00053FC0028C8D14FF0E0234FF08052C3F8F8
:101AD000042DBFF34F8FBFF36F8FBDE72046FFF795
:101AE0006FFE00F041FC00208DE72DE9F84390B136
:101AF0000F4616461C460546B1B1022C20D1EB6BB1
:101B0000012B1DD04FF0500383F31188BFF36F8F6B
:101B1000BFF34F8FFEE74FF0500383F31188BFF3FD
:101B20006F8FBFF34F8FFEE7036C002BE5D04FF0B4
:101B3000500383F31188BFF36F8FBFF34F8FFEE71E
:101B400001F0BAFCEFF311894FF0500383F31188D1
:101B5000BFF36F8FBFF34F8FAA6BEB6B9A4206D325
:101B6000022C04D0002089F31188BDE8F88395F891
:101B700045804FFA88F8224639462846FFF7D3FDBC
:101B8000B8F1FF3F06D008F101035BB285F845309C
:101B90000120E8E76B6A0BB90120E4E705F12400B6
:101BA00000F004FD18B126B101203060DBE7012010
:101BB000D9E70120D7E7F0B585B0019290B10F4683
:101BC0000446C1B100F08CFD064600BB019B002B12
:101BD0005ED04FF0500383F31188BFF36F8FBFF3D4
:101BE0004F8FFEE74FF0500383F31188BFF36F8FE1
:101BF000BFF34F8FFEE7036C002BE3D04FF0500391
:101C000083F31188BFF36F8FBFF34F8FFEE700267A
:101C10003EE039462046FFF7C1FD013DA56323693B
:101C200023B901F081FB012005B0F0BD04F11000E3
:101C300000F0BCFC0028F4D04FF0E0234FF08052BD
:101C4000C3F8042DBFF34F8FBFF36F8FE9E701F0A7
:101C50006BFB0020E8E702A800F0EEFC012621E083
:101C6000002384F8443029E0002384F845302BE039
:101C70002046FFF7A5FD00F077FB09E02046FFF7BF
:101C80009FFD00F071FB2046FFF740FD00283FD18B
:101C900001F028FBA56B002DBBD1019B002BD6D0FA
:101CA000002ED8D001F040FB00F0C4FA01F01AFB7E
:101CB00094F844305BB2B3F1FF3FD1D094F8453093
:101CC0005BB2B3F1FF3FCFD001F02EFB01A902A818
:101CD00000F0BEFC0028D1D12046FFF717FD0028F8
:101CE000C6D0019904F1240000F02CFC2046FFF737
:101CF00067FD00F039FB0028CAD14FF0E0234FF018
:101D00008052C3F8042DBFF34F8FBFF36F8FBFE72F
:101D1000002089E70023072B0CD8074A52F833200C
:101D20000AB10133F7E7044A42F8331002EBC30368
:101D300058607047704700BF9407002070B5044694
:101D40000D46164601F0CEFA94F844305BB2B3F17A
:101D5000FF3F0DD094F845305BB2B3F1FF3F0BD09D
:101D600001F0E2FAA36B5BB12046FFF729FD70BDDD
:101D7000002384F84430EDE7002384F84530EFE792
:101D80003246294604F1240000F0F4FBECE70000A1
:101D9000084B1B681B6823B9074B4FF0FF321A60D2
:101DA0007047044B1B68DB68DB685A68024B1A609B
:101DB000704700BFD8070020B00800202DE9F04789
:101DC00080460D4617469946089EDDF824A00A9CD9
:101DD0009200A521206B01F069FC236B07F1804282
:101DE000013A03EB820727F00707B5B34FF0000C69
:101DF000BCF10F0F0BD815F80C2004EB0C0383F883
:101E0000342015F80C3013B10CF1010CF0E700236D
:101E100084F84330062E00D90626E6626664002563
:101E2000A564201DFFF729FC04F11800FFF725FC2D
:101E30002461C6F10706A6616462E56484F8505027
:101E40004A464146384601F029FA2060BAF1000FAF
:101E500001D0CAF80040BDE8F087002384F8343090
:101E6000D8E7000038B5002407E004EB84029300B3
:101E70000E481844FFF7F6FB0134062CF5D90C4D3B
:101E80002846FFF7EFFB0B4C2046FFF7EBFB0A4819
:101E9000FFF7E8FB0948FFF7E5FB0948FFF7E2FB1E
:101EA000084B1D60084B1C6038BD00BFE0070020D8
:101EB0008408002098080020B8080020E4080020CA
:101EC000D0080020D8070020DC07002010B5044609
:101ED00001F008FA214A136801331360204B1B6894
:101EE0005BB1204B1B686BB91D4B1B68DA6AE36A58
:101EF0009A4207D81A4B1C6004E0194B1C60136807
:101F0000012B28D0184A136801331360E06A0123BB
:101F10008340164A11680B43136000EB8000211DBB
:101F2000134B03EB8000FFF7ABFB01F0FDF90D4B0A
:101F30001B687BB10A4B1B68DA6AE36A9A4209D2D2
:101F40004FF0E0234FF08052C3F8042DBFF34F8FC2
:101F5000BFF36F8F10BDFFF785FFD3E76C0800203C
:101F6000D4070020CC0800207C0800208008002036
:101F7000E007002010B5044690F8513063B1012B02
:101F800011D0022B0ED04FF0500383F31188BFF312
:101F90006F8FBFF34F8FFEE7006B01F017F92046FC
:101FA00001F014F910BD01F011F9FBE70F4B1B68AC
:101FB000D3B110B501F096F90D4BDB68DC68201D3C
:101FC000FFF782FB0B4A1368013B1360074A136853
:101FD000013B136001F0A8F92046FFF7CBFF034B4C
:101FE0001B68002BE6D110BD704700BF70080020B1
:101FF000E40800206C08002008B5FFF7D7FF074B66
:102000001B68012BF9D94FF0E0234FF08052C3F841
:10201000042DBFF34F8FBFF36F8FEEE7E007002073
:1020200070B504460D461D4B1E681D4B18680430E4
:10203000FFF74AFB50B91A4B1B68DA6A012303FA0F
:1020400002F218490B6823EA02030B60B4F1FF3F68
:102050000DD03444124B1B685C60A64210D9124B61
:1020600018680F4B19680431FFF715FB70BD002D80
:10207000EFD00B4B196804310C48FFF701FBF5E773
:102080000B4B1868064B19680431FFF704FB094B2A
:102090001B68A342EAD9074B1C60E7E7F808002059
:1020A000D407002080080020DC070020D008002092
:1020B000D8070020B008002030B587B00B9C7CB159
:1020C0000C9DB5B154250495049D542D1AD04FF0A4
:1020D000500383F31188BFF36F8FBFF34F8FFEE779
:1020E0004FF0500383F31188BFF36F8FBFF34F8F0F
:1020F000FEE74FF0500383F31188BFF36F8FBFF3F8
:102100004F8FFEE7049D0C9D2C63022485F85140FF
:1021100000240394029505AC01940A9C0094FFF7F7
:102120004DFE0C98FFF7D2FE059807B030BD2DE9A3
:10213000F04385B00746884614461E46900000F0DE
:10214000CDFF00B38146542000F0C8FF0546B0B172
:10215000C0F83090E5B1002385F851300393029523
:102160000D9B01930C9B0093334622464146384613
:10217000FFF724FE2846FFF7A9FE012005E04846A8
:1021800001F024F8E6E74FF0FF3005B0BDE8F0833A
:102190004FF0FF30F9E7000010B588B00024059437
:1021A000069407AA06A905A8FEF750F9059B029315
:1021B000069B019300942346079A18491848FFF795
:1021C0007BFF184B186040B100F0C6FC012806D018
:1021D000B0F1FF3F18D008B010BD0020F6E74FF077
:1021E000500383F31188BFF36F8FBFF34F8F0E4BF4
:1021F0004FF0FF321A600D4B01221A600C4B002287
:102200001A6001F0F9F8E6E74FF0500383F3118804
:10221000BFF36F8FBFF34F8FFEE700BF7049000819
:10222000F91F0008AC080020B0080020CC080020EE
:10223000F8080020024A136801331360704700BF9A
:1022400078080020014B1868704700BFF80800208C
:10225000F8B53A4B1B68002B64D1394B1D6801352A
:102260001D60C5B9374B1B681B6843B14FF0500365
:1022700083F31188BFF36F8FBFF34F8FFEE7314AAF
:102280001168314B186810601960304A13680133C7
:102290001360FFF77DFD2E4B1B68AB4238D900273A
:1022A0002C4B1B68DB6A03EB83039A002A4B9B5879
:1022B000012B3CD901273AE00127224B1B681B6800
:1022C00043B3204B1B68DB68DC6863689D4226D300
:1022D000261D3046FFF7F8F9A36A1BB104F1180078
:1022E000FFF7F2F9E36A01229A401C4908680243A9
:1022F0000A6003EB83039A00314617481044FFF746
:10230000BFF9E26A134B1B68DB6A9A42D4D2D4E766
:102310000027D2E70E4B4FF0FF321A60C0E70C4A9D
:102320001360BDE70E4A13680133136000270D4B9D
:102330001B6803B101273846F8BD00BF78080020AC
:10234000F8080020D8070020DC070020B40800208F
:10235000B0080020D4070020E007002080080020FB
:1023600074080020FC08002038B5354B1B6843B9C1
:102370004FF0500383F31188BFF36F8FBFF34F8F7C
:10238000FEE700F0AFFF2E4B1A68013A1A601B6897
:10239000002B4FD12B4B1B680BB900244BE00024C2
:1023A000294B1B681BB3284BDB68DC6804F1180061
:1023B000FFF78AF9251D2846FFF786F9E06A012311
:1023C0008340224A11680B43136000EB80002946CA
:1023D0001F4B03EB8000FFF753F9E26A1D4B1B68AC
:1023E000DB6A9A42DCD31C4B01221A60D8E70CB19D
:1023F000FFF7CEFC194B1C6884B9174B1C68D4B18D
:102400004FF0E0234FF08052C3F8042DBFF34F8FFD
:10241000BFF36F8F01240EE0013C07D0FFF718FFD8
:102420000028F9D00C4B01221A60F5E70B4B002273
:102430001A60E2E7002400F077FF204638BD00BFB5
:10244000780800206C080020B808002080080020D0
:10245000E0070020D4070020FC08002074080020BA
:1024600010B5A8B10446104B1B6843B14FF05003A0
:1024700083F31188BFF36F8FBFF34F8FFEE7FFF732
:10248000D9FE00212046FFF7CBFDFFF76DFF48B9CD
:102490004FF0E0234FF08052C3F8042DBFF34F8F6D
:1024A000BFF36F8F10BD00BF78080020204B1B6862
:1024B0001BB1204B01221A6070471E4B00221A608C
:1024C0001D4B1B68B3FA83F3DBB2C3F11F0303EBAD
:1024D00083018A0019498A5842B94FF0500383F3A7
:1024E0001188BFF36F8FBFF34F8FFEE7134903EBE4
:1024F000830082000A4450684068506003EB830CFC
:102500004FEA8C0208321144884209D003EB83035E
:102510009A000A4B13445B68DA68094B1A607047EB
:10252000406862469100054A0A445060EEE700BFE9
:1025300078080020FC08002080080020E007002028
:10254000D407002058B110B50C46094A116818315B
:10255000FFF7A1F801212046FFF762FD10BD4FF003
:10256000500383F31188BFF36F8FBFF34F8FFEE7E4
:10257000D407002038B570B10D4614460A4A1168D8
:102580001831FFF77DF80CB14FF0FF352146284692
:10259000FFF746FD38BD4FF0500383F31188BFF3BA
:1025A0006F8FBFF34F8FFEE7D407002038B5C368A5
:1025B000DC6824B304F118052846FFF785F8184BAA
:1025C0001B682BBB251D2846FFF77EF8E06A012318
:1025D0008340144A11680B43136000EB80002946C6
:1025E000114B03EB8000FFF74BF8E26A0F4B1B68BF
:1025F000DB6A9A4211D901200D4B186038BD4FF0AB
:10260000500383F31188BFF36F8FBFF34F8FFEE743
:1026100029460848FFF734F8E7E70020EEE700BF57
:102620007808002080080020E0070020D407002060
:10263000FC080020B8080020034B1B680360034B14
:102640001B684360704700BFB4080020F8080020F2
:10265000D8B170B50C46054601B300F043FE1B4BE4
:1026600019686B68C81A2268B2F1FF3F27D0184E6C
:102670003668D5F800C0B44501D08B4224D98242D7
:1026800015D80023236001241AE04FF0500383F390
:102690001188BFF36F8FBFF34F8FFEE74FF05003EA
:1026A00083F31188BFF36F8FBFF34F8FFEE75B1A81
:1026B000134423602846FFF7BFFF002400E00024F6
:1026C00000F032FE204670BD0124F9E7F808002032
:1026D000B4080020014B01221A607047FC0800205A
:1026E000054B1B6833B1054B1B680BB100207047CD
:1026F0000220704701207047CC0800207808002095
:1027000000284CD038B50446274B1B68834208D0BC
:102710004FF0500383F31188BFF36F8FBFF34F8FD8
:10272000FEE7836C43B94FF0500383F31188BFF386
:102730006F8FBFF34F8FFEE7013B8364C16A426C2A
:1027400091422ED00BB1002038BD051D2846FEF762
:10275000BBFF70B9E26A02EB82039B001349CB58BE
:102760003BB9012303FA02F211490B6823EA020381
:102770000B60606CE062C0F10703A361012404FAFE
:1027800000F30B4A11680B43136000EB80002946ED
:10279000064B03EB8000FEF773FF2046D4E70020D2
:1027A00070470020D0E700BFD4070020E0070020DA
:1027B00080080020F8B506460F4614461D4600F076
:1027C00091FD214B1B6893F85020D2B2022A0AD007
:1027D0001D4B1A68D06C20EA0606D6641B680122DD
:1027E00083F85020CDB900F09FFD00F07BFD1CB1B7
:1027F000154B1B68DB6C2360134B1B6893F8503040
:10280000DBB2022B18D000240F4B1B68002283F888
:10281000502000F089FD2046F8BD11462846FFF7FC
:10282000FFFB4FF0E0234FF08052C3F8042DBFF3BD
:102830004F8FBFF36F8FD6E7034B1B68D96C21EA2C
:102840000707DF640124DFE7D4070020F8B5A8B14B
:102850000F4614461D46064600F044FD0DB1F36CCC
:102860002B6096F85030DBB2022286F85020042C00
:102870001FD8DFE804F02B0C111619004FF050039D
:1028800083F31188BFF36F8FBFF34F8FFEE7F26CB6
:102890001743F76401241AE0F26C0132F264012458
:1028A00015E0F764012412E0022B16D0F76401242E
:1028B0000DE0F26CB2F1FF3F11D04FF0500383F303
:1028C0001188BFF36F8FBFF34F8FFEE70124012BF9
:1028D00007D000F029FD2046F8BD0024F7E70124C9
:1028E000F5E7351D2846FEF7EFFEF06A0123834029
:1028F000134A11680B43136000EB80002946114B0B
:1029000003EB8000FEF7BCFEB36A43B14FF0500307
:1029100083F31188BFF36F8FBFF34F8FFEE7F26A27
:10292000094B1B68DB6A9A42D3D94FF0E0234FF082
:102930008052C3F8042DBFF34F8FBFF36F8FC8E7EA
:1029400080080020E0070020D407002008B32DE90C
:10295000F0410E4614461D46074600F0ADFDEFF36C
:1029600011884FF0500383F31188BFF36F8FBFF3CB
:102970004F8F0DB1FB6C2B6097F85030DBB2022209
:1029800087F85020042C1FD8DFE804F02B0C111618
:1029900019004FF0500383F31188BFF36F8FBFF31B
:1029A0004F8FFEE7FA6C1643FE6401241AE0FA6CBE
:1029B0000132FA64012415E0FE64012412E0022BC6
:1029C00017D0FE6401240DE0FA6CB2F1FF3F12D083
:1029D0004FF0500383F31188BFF36F8FBFF34F8F16
:1029E000FEE70124012B08D088F311882046BDE8BA
:1029F000F0810024F6E70124F4E7BB6A43B14FF00D
:102A0000500383F31188BFF36F8FBFF34F8FFEE73F
:102A1000154B1B680BBB3D1D2846FEF755FEF86A9B
:102A200001238340114A11680B43136000EB8000BF
:102A300029460F4B03EB8000FEF722FEFA6A0D4B8E
:102A40001B68DB6A9A42CFD9069B13B10123069A11
:102A50001360094B01221A60C6E707F11801074805
:102A6000FEF70EFEEAE700BF78080020800800208D
:102A7000E0070020D4070020FC080020B808002050
:102A8000064B1A6813682BB90123036023B9D36876
:102A9000186870470023F8E70020704700090020FD
:102AA00008B54160006191420CD8D21A83699A42FC
:102AB00001D3012008BD011D094B1868FEF7EBFD8D
:102AC0000020F7E79A4201D2994206D2011D054B38
:102AD0001868FEF7E0FD0020ECE70120EAE700BF00
:102AE000040900200009002030B583B000F0FAFB93
:102AF000114B1B681BB100F017FC03B030BD0F4D2C
:102B00002846FEF7AFFD0E4C2046FEF7ABFD0D4B01
:102B10001D600D4B1C60002300930C4B0C4A0C21D4
:102B20000A20FEF7D4FE044B18600028E3D00949C0
:102B3000FFF7F0F8DFE700BFF4090020800900206C
:102B4000940900200009002004090020AC0900209D
:102B5000080900207849000810B588B0FFF7C4FFC5
:102B6000124B1B68CBB100240594069407AA06A952
:102B700005A8FDF777FC059B0293069B01930223B2
:102B800000932346079A0A490A48FFF795FA0A4B29
:102B9000186010B1012008B010BD4FF0500383F34E
:102BA0001188BFF36F8FBFF34F8FFEE7F40900204A
:102BB00080490008AD2E0008F8090020B8B19C46F5
:102BC00003461848006858B300B585B001910292D9
:102BD000039305291CDCFFF783FD022810D0002396
:102BE0001A4601A90F480068FEF7BBFE15E04FF03A
:102BF000500383F31188BFF36F8FBFF34F8FFEE74E
:102C00000023069A01A907480068FEF7AAFE04E01F
:102C10000023624601A9FEF768FF05B05DF804FBDA
:102C200000207047F409002070B582B01B4B1B6870
:102C30001A6862B3DB681E68DC68251D2846FEF74B
:102C400043FD236A2046984794F8243013F0040F7C
:102C5000ECD0A36933449E4207D2636024612946C5
:102C60000E4B1868FEF717FDE0E7002100910B46B8
:102C700032462046FFF7A2FF0028D7D14FF050037D
:102C800083F31188BFF36F8FBFF34F8FFEE7044AC2
:102C9000106802490860136002B070BD000900208E
:102CA0000409002038B50546FFF7CCFA0446074B67
:102CB0001B68834205D800232B60044B1C60204610
:102CC00038BDFFF7B1FF01232B60F6E7A80900200C
:102CD00070B582B006460D4617490968C968CC68C8
:102CE000201DFEF7F1FC94F824C01CF0040F08D15D
:102CF0002CF0010C84F824C0236A2046984702B0C7
:102D000070BDA16933462A4631442046FFF7C8FE0C
:102D10000028F1D0002100910B4632462046FFF7F3
:102D20004DFF0028E8D14FF0500383F31188BFF323
:102D30006F8FBFF34F8FFEE70009002070B582B0A0
:102D400006460C46FFF776FA01A8FFF7ABFF019B9A
:102D500033BB05460CB9B04219D224B1124A1268ED
:102D60001268DAB901242246711B104B1868FEF76D
:102D7000E5FFFFF7F9FAA8B94FF0E0234FF08052D2
:102D8000C3F8042DBFF34F8FBFF36F8F0AE0FFF737
:102D9000EBFA29463046FFF79BFF03E01C46E2E7CB
:102DA000FFF7E2FA02B070BD04090020F409002028
:102DB00010B586B0002203A93B4B1868FEF7FBFE56
:102DC00000286ED0039B002BF4DB059C636913B1D4
:102DD000201DFEF779FC02A8FFF764FF039B092B77
:102DE000E8D8DFE803F00505053037500505303732
:102DF00094F8243043F0010384F82430049BA16943
:102E0000024619442046FFF74BFE0028D2D0236A21
:102E10002046984794F8243013F0040FCAD0A269D2
:102E2000002100910B46049802442046FFF7C6FE9D
:102E30000028BFD14FF0500383F31188BFF36F8F89
:102E4000BFF34F8FFEE794F8243023F0010384F89A
:102E50002430AFE794F8243043F0010384F82430A1
:102E60000499A16131B10346024601442046FFF7AF
:102E700017FE9FE74FF0500383F31188BFF36F8F66
:102E8000BFF34F8FFEE794F8243013F0020F04D005
:102E900023F0010384F824308CE7204600F096F9F3
:102EA00088E706B010BD00BFF409002000B583B06C
:102EB00001A8FFF7E5FD0199FFF740FFFFF778FF55
:102EC000F6E7842801D00330704700207047EFF305
:102ED0000580003818BF0120704708B5FFF75CF97E
:102EE000002008BD2DE9F04387B004460F46456930
:102EF000BDB18669AEB1D0F80480D0F80090B0F9C9
:102F00000800FFF7DEFF0296019500903B4622691C
:102F100049464046FFF7D0F80590059807B0BDE850
:102F2000F08365682668D4F81080B4F90800FFF7CC
:102F3000C8FF05AB019300903B461FFA88F231466B
:102F40002846FFF7F4F80128E7D00020E6E708B5A7
:102F500000B90120FFF784FA002008BD30B585B024
:102F600004460D46002303930293FFF7B0FFB0B170
:102F700003AB009302AB012229462046FFF7E6FC93
:102F8000012817D1039B93B14FF0E0234FF08052FB
:102F9000C3F8042DBFF34F8FBFF36F8F07E002AB71
:102FA000012229462046FFF751FC012805D102984D
:102FB00005B030BD4FF00040FAE74FF00040F7E7B2
:102FC00070B584B004460E46154600230293FFF701
:102FD0007EFF48B18223019304AB13E9070084E824
:102FE0000700204604B070BD2B4602AA31460020DF
:102FF000FFF7E0FB012806D015B900230193EBE7AA
:1030000040230193E8E7029B002B02DB0823019396
:10301000E2E786230193DFE7124A12F0070F1ED082
:10302000D11D21F00701C1F5406313440A460E4843
:103030000260002141601344083B23F007030B4862
:10304000036059601960991A51601360084B196048
:10305000084B1960084B4FF000421A6070474FF45C
:103060004063E4E7000A00200C160020FC09002061
:10307000081600200416002000160020154B1A46E2
:103080001B688342FBD3516802EB010C844509D0D5
:10309000416800EB010C634509D00360904218D0F1
:1030A000106070474068014451601046F0E710B46A
:1030B000094C2468A3420AD05B6819444160136834
:1030C0001B680360904200D0106010BC7047046021
:1030D000F8E770470C160020FC09002070B5054683
:1030E000FFF7A8F8344B1B68A3B1344B1B681D4293
:1030F0004AD135B1083515F0070F02D025F0070584
:103100000835002D42D02E4B1B68AB424DD32D4AC3
:10311000146804E0FFF780FFE7E722461C46636877
:10312000AB4202D22368002BF7D1234B1B68A3428A
:103130003DD0166808362368136063685B1B102B4C
:1031400010D9601910F0070F08D04FF0500383F327
:103150001188BFF36F8FBFF34F8FFEE74360656049
:10316000FFF78CFF626816490B689B1A0B601649C3
:1031700009688B4201D214490B60104B1B68134342
:1031800063600023236002E0002600E00026FFF7D2
:10319000EBF816F0070F0CD04FF0500383F31188B3
:1031A000BFF36F8FBFF34F8FFEE70026EFE70026D8
:1031B000EDE7304670BD00BFFC090020001600207E
:1031C000041600200C1600200816002080B338B525
:1031D0000446A0F1080550F8043C164A1268134250
:1031E00008D14FF0500383F31188BFF36F8FBFF303
:1031F0004F8FFEE750F8081C41B14FF0500383F3A6
:103200001188BFF36F8FBFF34F8FFEE723EA0203EE
:1032100040F8043CFFF70EF854F8041C064A136803
:103220000B4413602846FFF729FFFFF79DF838BDD0
:10323000704700BF001600200416002082B0002353
:1032400001930D4B1B68B3F1FF3F08D04FF05003C3
:1032500083F31188BFF36F8FBFF34F8FFEE74FF0FB
:10326000500383F31188BFF36F8FBFF34F8F019B20
:10327000002BFCD002B070470C000020064800680C
:10328000006880F3088862B661B6BFF34F8FBFF362
:103290006F8F00DF00BF000008ED00E04FF080738B
:1032A00040F8043C21F0010140F8081C034B40F8B1
:1032B0000C3C40F8202C4038704700BF3D320008DD
:1032C000074B19680868B0E8F00F80F30988BFF36E
:1032D0006F8F4FF0000080F311884EF00D0E704795
:1032E000D40700204FF0500383F31188BFF36F8F92
:1032F000BFF34F8F0B4A136801331360012B00D0CB
:1033000070474FF0E023D3F8043D13F0FF0FF7D0E0
:103310004FF0500383F31188BFF36F8FBFF34F8FCC
:10332000FEE700BF0C000020094B1B6843B94FF0BB
:10333000500383F31188BFF36F8FBFF34F8FFEE706
:10334000013B034A13600BB983F31188704700BF38
:103350000C00002000000000000000000000000041
:10336000EFF30980BFF36F8F0D4B1A6820E9F00F60
:1033700010602DE908404FF0500080F31188FFF7EE
:1033800095F84FF0000080F31188BDE808401968F7
:103390000868B0E8F00F80F30988BFF36F8F7047BB
:1033A000D407002008B54FF0500383F31188BFF312
:1033B0006F8FBFF34F8FFEF74BFF28B14FF0E02325
:1033C0004FF08052C3F8042D002383F3118808BD09
:1033D0004FF0E022002313619361054B1B68054900
:1033E000A1FB03139B09013B536107231361704742
:1033F00008000020D34D621010B582B02A4B1A7815
:10340000D2B20192FF221A701B78DBB28DF8033022
:103410009DF8033003F05003244A1370244B072215
:103420001A6009E0224A1368013B13609DF80330DB
:103430005B00DBB28DF803309DF8033013F0800F92
:10344000F0D11B4B1B68032B08D04FF0500383F3C4
:103450001188BFF36F8FBFF34F8FFEE71B02144A33
:10346000136003F4E0631360019BDBB20E4A137038
:103470004FF0E023D3F8202D42F47002C3F8202D42
:10348000D3F8202D42F07042C3F8202DFFF7A0FFA3
:103490000024084B1C60FFF7F1FEFFF707F8FFF769
:1034A000CDFE204602B010BD00E400E0141600205E
:1034B000181600200C000020EFF305830F2B0FD906
:1034C000114A9B5CDBB2114A12789A4208D94FF03C
:1034D000500383F31188BFF36F8FBFF34F8FFEE765
:1034E0004FF0E023D3F80C3D03F4E063084A126880
:1034F000934208D94FF0500383F31188BFF36F8FC5
:10350000BFF34F8FFEE77047F0E300E01416002092
:103510001816002010B503460C4A0D490D480068E6
:1035200040B10C4800680344521A934206D8094A35
:10353000136010BD0748084C0460F2E700F07EF805
:103540000C2303604FF0FF30F3E700BF0080002042
:10355000000400001C160020301600204FF0E0226E
:10356000D2F8FC3D43F08073C2F8FC3D4FF060425E
:10357000D2F8003E43F00103C2F8003E4FF0604332
:103580001B6813F0010FF9D04FF0604318607047CB
:1035900070B50C461646002506E0AFF300802146C4
:1035A00001F8010B01350C46B542F6DB304670BD23
:1035B00070B50C461646002504E014F8010BFFF721
:1035C000CDFF0135B542F8DB304670BD4FF0FF301E
:1035D00070474FF400534B60002070470120704744
:1035E0000020704772B6FEE70D488546FEF739F8B1
:1035F0000C480D490D4A002302E0D458C45004334E
:10360000C4188C42F9D30A4A0A4C002301E0136023
:103610000432A242FBD300F017F8FCF7EDFEFEE700
:10362000008000200000002078000020304A0008C0
:103630007800002030160020FEE70000014B1868DB
:10364000704700BF1000002070B50D4D0D4C641B7D
:10365000A4100026A64209D10B4D0C4C01F02AF80B
:10366000641BA4100026A64205D170BD55F8043B8A
:1036700098470136EEE755F8043B98470136F2E7E4
:10368000204A0008204A0008204A0008244A00086E
:103690000A44914200F1FF3300D1704710B511F890
:1036A000014B03F8014F9142F9D110BD024403468A
:1036B000934200D1704703F8011BF9E70FB40A4B9E
:1036C00013B51C6824B1A36913B9204600F05AFA57
:1036D00005AB049AA1680193204600F05FFC02B09C
:1036E000BDE8104004B070471000002070B50E46D1
:1036F000054618B183690BB900F044FAAB69AC68B0
:1037000013B9284600F03EFA2C4B9C4220D16C683D
:10371000636EDB0705D4A389980502D4A06D00F081
:10372000CFFAA38919071DD52369DBB1013EA36830
:1037300016F8011F013BA36039BB002B38DA224683
:103740000A21284600F048F8013011D00A2511E07E
:103750001B4B9C4201D1AC68DAE71A4B9C4208BF74
:10376000EC68D5E72146284600F088F80028DDD02F
:103770004FF0FF35636EDA0705D4A3899B0502D4A9
:10378000A06D00F09EFA284670BD002B04DAA269F5
:103790009A4206DC0A2904D023685A1C2260197058
:1037A000C5E72246284600F017F80130BFD1DFE711
:1037B00023680A255A1C22601D70DBE7AC4900080B
:1037C000CC4900088C490008024B01461868FFF7F5
:1037D0008DBF00BF10000020F8B50E461446054608
:1037E00018B183690BB900F0CDF9214B9C422BD164
:1037F0006C68A369A360A3891A072FD523696BB3EB
:1038000023692068C01A6369F6B28342374604DC34
:103810002146284600F022F930BBA368013BA36093
:1038200023685A1C22601E7063690130834204D0F1
:10383000A389DB0706D50A2E04D12146284600F0CD
:103840000DF988B93846F8BD0A4B9C4201D1AC68E5
:10385000CFE7094B9C4208BFEC68CAE721462846DF
:1038600000F00CF80028CBD04FF0FF37EAE700BF9C
:10387000AC490008CC4900088C490008324B70B5AF
:103880001D6806460C4625B1AB6913B9284600F001
:1038900079F92E4B9C420FD16C68A389B4F90C20A6
:1038A00019072CD4DD0611D40923336042F04003FC
:1038B000A3814FF0FF303EE0254B9C4201D1AC6824
:1038C000EBE7244B9C4208BFEC68E6E7580712D5AB
:1038D000616B41B104F14403994202D0304600F0DB
:1038E00057FA00236363A38923F02403A3810023F1
:1038F000636023692360A38943F00803A3812369DC
:103900004BB9A38903F42073B3F5007F03D021469C
:10391000304600F0FDF9A089B4F90C2010F0010345
:103920000AD00023A36063695B42A361236943B9A2
:1039300010F08000BAD170BD810758BF6369A360E1
:10394000F4E70020F7E700BF10000020AC490008B2
:10395000CC4900088C4900088A89F8B5054610074B
:103960000C4657D44B68002B04DC0B6C002B01DC9D
:103970000020F8BDE66A002EFAD0002312F480522F
:103980002F682B6032D0606DA3895A0705D5636814
:10399000C01A636B0BB1236CC01A00230246E66A9F
:1039A000216A2846B047431CA38906D129681D29EE
:1039B0002CD8294ACA40D60728D500226260D904EB
:1039C0002269226004D5421C01D12B6803B96065CD
:1039D000616B2F600029CBD004F14403994202D0DF
:1039E000284600F0D5F900206063C2E7216A012370
:1039F0002846B047411CC7D12B68002BC4D01D2BD3
:103A000001D0162B01D12F60B2E7A38943F0400308
:103A1000A381AEE70F69002FAAD093070E6808BFF5
:103A20004B690F6018BF0023F61B8B60002E9FDDD3
:103A3000216AD4F828C033463A462846E047002891
:103A400006DCA38943F04003A3814FF0FF3090E7E9
:103A50000744361AEAE700BF0100402038B50B6979
:103A600005460C4613B90025284638BD18B18369B0
:103A70000BB900F087F8144B9C421BD16C68B4F969
:103A80000C30002BEFD0626ED00704D4990502D41D
:103A9000A06D00F015F928462146FFF75DFF636E23
:103AA000DA070546E0D4A3899B05DDD4A06D00F0BC
:103AB00008F9D9E7054B9C4201D1AC68DFE7044B1C
:103AC0009C4208BFEC68DAE7AC490008CC49000822
:103AD0008C490008002310B50446C0E90033C0E952
:103AE0000433836081814366C28183611946082261
:103AF0005C30FFF7DBFD054B6362054BA362054BB2
:103B0000E362054B2462236310BD00BF45450008F6
:103B1000674500089F450008C3450008014900F0BB
:103B2000AFB800BF5D3A000870B568224D1E55431E
:103B30000E4605F1740100F095F9044640B10021EC
:103B4000C0E900160C30A06005F16802FFF7AEFD79
:103B5000204670BD014800F0B3B800BF2116002018
:103B6000014800F0AEB800BF21160020014800F067
:103B7000A7B800BF22160020014800F0A2B800BF7D
:103B80002216002010B50446FFF7F0FFA3691BB111
:103B9000BDE81040FFF7F0BFC4E912332365134BB3
:103BA000134A1B68A262A34204BF0123A3612046FB
:103BB00000F020F86060204600F01CF8A06020466D
:103BC00000F018F80022E06004216068FFF782FF2F
:103BD000A06801220921FFF77DFFE068022212217F
:103BE000FFF778FF0123A361D2E700BF88490008EF
:103BF0001D3B0008F8B50746FFF7ACFF1E4B1E68DB
:103C0000B36913B93046FFF7BDFF4836D6E9013432
:103C1000013B03D533680BB33668F7E7B4F90C50B2
:103C2000D5B9164BE36004F15800656600F047F81B
:103C3000FFF796FFC4E90155C4E904552560A56165
:103C40000822294604F15C00FFF730FDC4E90D5558
:103C5000C4E912552046F8BD6834D9E70421384636
:103C6000FFF762FF044630600028D5D1FFF778FFE8
:103C70000C233B60EEE700BF884900080100FFFF0E
:103C80002DE9F8430646884600F148040027D4E9A8
:103C90000195B9F1010905D52468002CF7D1384602
:103CA000BDE8F883AB89012B07D9B5F90E30013394
:103CB00003D029463046C04707436835E9E77047D7
:103CC0007047704770B50E46B1F90E10002996B0D6
:103CD00014461D4608DAB6F90C3000222A601A068E
:103CE00010D44FF480630EE06A4600F091FC002887
:103CF000F1DB019A02F47042A2F500535A425A4194
:103D00002A60EEE740230020236016B070BD00005B
:103D10008B8973B59D0706460C4607D504F147030A
:103D2000236023610123636102B070BD01AB6A4669
:103D3000FFF7C8FF00990546304600F093F848B9F0
:103D4000B4F90C309A05EFD423F0030343F00203D7
:103D5000A381E3E70D4BB362A389206043F08003A6
:103D6000A381009B6361019B20615BB1B4F90E10DC
:103D7000304600F05FFC28B1A38923F0030343F031
:103D80000103A381A0890543A581CDE71D3B000860
:103D900038B50546002941D051F8043C0C1F002BD2
:103DA000B8BFE41800F068FC1D4A136833B96360BB
:103DB00014602846BDE8384000F064BCA34208D92E
:103DC000206821188B4201BF19685B6809182160BF
:103DD000EDE71A465B680BB1A342FAD91168501897
:103DE000A0420BD120680144501883421160E0D1F9
:103DF00018685B68536001441160DAE702D90C234C
:103E00002B60D6E7206821188B4204BF19685B68D5
:103E1000636004BF091821605460CAE738BD00BF61
:103E20002416002070B50E4E0C463168054611B9B7
:103E300000F078FB30602146284600F073FB431CFD
:103E40000AD0C41C24F00304A04207D0211A28463B
:103E500000F068FB013001D14FF0FF34204670BD07
:103E6000281600202DE9F041CD1C25F0030508356A
:103E70000C2D38BF0C25002D074601DBA94205D9C2
:103E80000C233B6000263046BDE8F0812E4E00F04A
:103E9000F3FB33681C4634BB29463846FFF7C2FFA4
:103EA000431C04464DD134682646002E40D1236879
:103EB0003146384604EB030800F034FB80453AD124
:103EC000216803356D1A25F0030508350C2D38BF20
:103ED0000C2529463846FFF7A5FF01302BD0236873
:103EE0002B4423600EE02268521B1ED40B2A16D9E5
:103EF0006119A342256018BF5960636808BF31602B
:103F000062514B60384604F10B0600F0BBFB26F013
:103F10000706231DF21AB6D09B1BA350B3E76268B5
:103F2000A3420CBF32605A60ECE723466468B2E7F4
:103F300034467668B9E70C233B60384600F0A2FBB4
:103F4000A1E72560DEE700BF241600209368013B4F
:103F5000002B10B4936007DA9469A34201DB0A29AD
:103F600002D110BCFFF738BC1368581C10601970E0
:103F7000084610BC7047F8B506460F461446D518DB
:103F8000AC4201D1002007E014F8011B3A4630464C
:103F9000FFF7DCFF431CF3D1F8BD00002DE9F04F23
:103FA0000D469DB014469846064618B183690BB974
:103FB000FFF7E8FD894B9D421BD175686B6ED907F1
:103FC00005D4AB899A0502D4A86DFFF779FEAB89B9
:103FD0001B0701D52B69EBB929463046FFF74EFC8C
:103FE000C0B16B6EDC070ED54FF0FF301DB0BDE8E1
:103FF000F08F7B4B9D4201D1B568DFE7794B9D4245
:1040000008BFF568DAE7AB899805EDD4A86DFFF72E
:1040100058FEE9E70023099320238DF82930CDF8D5
:104020000C803023DFF8C0818DF82A304FF0010971
:1040300023469A4613F8012B0AB1252AF9D1BAEB87
:10404000040B0BD05B46224629463046FFF793FF10
:10405000013000F0AA80099A5A4409929AF8003077
:10406000002B00F0A28000234FF0FF32CDE90523A2
:104070000AF1010A049307938DF853301A935446BA
:10408000052214F8011B5848FCF77AF8049AD8B9AD
:10409000D10644BF20238DF85330130744BF2B2390
:1040A0008DF853309AF800302A2B15D0079A5446D1
:1040B00000204FF00A0C214611F8013B303B092B40
:1040C0004ED9B0B1079214E0A0EB080309FA03F34C
:1040D00013430493A246D2E7039B191D1B68039167
:1040E000002BBBBF5B4242F0020207930793B8BFAD
:1040F000049223782E2B0CD163782A2B35D1039B85
:104100001A1D1B680392002BB8BF4FF0FF33023417
:104110000593DFF8D8A0217803225046FCF730F849
:1041200040B14023A0EB0A0003FA00F0049B0343D4
:104130000134049314F8011B2D488DF82810062231
:10414000FCF71EF800283FD02A4B1BBB039B07330C
:1041500023F0070308330393099B3B44099367E764
:104160000CFB02320C460120A5E700230134059325
:1041700019464FF00A0C204610F8012B303A092A54
:1041800003D9002BC5D00591C3E70CFB01210446E0
:104190000123F0E703AB00932A46174B04A93046EE
:1041A000AFF300800746781CD6D16B6ED90705D4D3
:1041B000AB899A0502D4A86DFFF783FDAB895B0636
:1041C0003FF512AF099811E703AB00932A460A4B5B
:1041D00004A9304600F080F8E4E700BFAC490008CD
:1041E000CC4900088C490008EC490008F249000855
:1041F000F649000800000000773F00082DE9F0476D
:10420000164699468A680B69DDF820809342B8BF4C
:104210001346336091F8432007460C460AB1013338
:1042200033602368990642BF3368023333602568E0
:1042300015F0060506D104F1190AE36832689B1AE5
:10424000AB4226DC94F84320131E226818BF0123DA
:1042500092062BD404F1430249463846C047013048
:104260001ED02368E568326803F00603042B08BFFC
:10427000AD1AA36822690CBF25EAE57500259342B3
:10428000C4BF9B1AED1800261A34B5421AD100207B
:1042900008E00123524649463846C047013003D161
:1042A0004FF0FF30BDE8F0870135C6E7E1185A1C32
:1042B000302081F84300224494F8451082F84310DE
:1042C0000233C7E70123224649463846C04701303A
:1042D000E6D00136D9E700002DE9FF470F7E0C9D9F
:1042E000782F914680460C469A4601F1430207D842
:1042F000622F0AD8002F00F0D880582F00F0A3803A
:1043000004F1420584F842703AE0A7F16303152BEB
:10431000F6D801A151F823F0714300088543000845
:10432000014300080143000801430008014300085D
:1043300085430008014300080143000801430008C9
:104340000143000891440008B54300087344000885
:104350000143000801430008B3440008014300087A
:10436000B543000801430008014300087B440008EE
:104370002B681A1D1B682A6004F1420584F842303C
:104380000123A3E020682968060601F104030AD589
:104390000E682B60002E03DA2D23764284F843301A
:1043A0005E480A2319E00E682B6010F0400F18BF1A
:1043B00036B2EFE72B682068191D2960010601D588
:1043C0001E6802E04606FBD51E8854486F2F0CBFBE
:1043D00008230A23002184F843106568A560002D96
:1043E000A2BF216821F0040121600EB9002D4DD03B
:1043F0001546B6FBF3F103FB1167C75D05F8017DB8
:104400003746BB420E46F4D9082B0BD12368DE0792
:1044100008D5236961689942DEBF302305F8013C65
:1044200005F1FF35521B2261CDF800A04B4603AACF
:1044300021464046FFF7E2FE01304CD14FF0FF30FD
:1044400004B0BDE8F087354881F8457029682368D5
:1044500051F8046B29601D0614D5DF0744BF43F0F3
:10446000200323601EB9236823F020032360102358
:10447000B0E7236843F0200323607823284884F8BA
:104480004530E3E7590648BFB6B2E6E71546BBE755
:104490002B6826686169181D286035061B6801D5E0
:1044A000196002E07006FBD51980002323611546D0
:1044B000BAE72B681A1D2A601D6862680021284629
:1044C000FBF75EFE08B1401B606063682361002358
:1044D00084F84330A8E723692A4649464046D04736
:1044E0000130ABD023689B0713D4E068039B98424C
:1044F000B8BF1846A4E70123324649464046D04794
:1045000001309BD00135E36803995B1AAB42F2DCC2
:10451000EBE7002504F11906F5E700BFFD490008A7
:104520000E4A000838B5064D0023044608462B60A5
:10453000FEF7F0FF431C02D12B6803B1236038BDA6
:104540002C16002010B50C46B1F90E1000F0A0F8A2
:104550000028ABBF636DA3891B1823F48053ACBF45
:104560006365A38110BD2DE9F0411F468B89DB05F2
:1045700005460C46164605D5B1F90E100223002259
:1045800000F068F8A389B4F90E1023F48053A381D6
:1045900032463B462846BDE8F04100F017B810B55A
:1045A0000C46B1F90E1000F055F8431CA38915BF55
:1045B000606523F4805343F48053A38118BFA38123
:1045C00010BDB1F90E1000F013B8000038B5074D5A
:1045D00004460846114600222A601A46FEF7E8FF04
:1045E000431C02D12B6803B1236038BD2C16002078
:1045F00038B5064D0023044608462B60FEF7E6FF5B
:10460000431C02D12B6803B1236038BD2C16002057
:1046100038B5074D00230446084611462B60FEF7C7
:10462000D8FF431C02D12B6803B1236038BD00BF03
:104630002C16002038B5064D0023044608462B6092
:10464000FEF7CCFF431C02D12B6803B1236038BDB9
:104650002C16002038B5074D0446084611460022A6
:104660002A601A46FEF7BCFF431C02D12B6803B137
:10467000236038BD2C1600200148FFF721BB00BF86
:10468000201600200148FFF71CBB00BF20160020A9
:1046900038B5074D04460846114600222A601A46DE
:1046A000FEF776FF431C02D12B6803B1236038BDAF
:1046B0002C160020F8B500BFF8BC08BC9E46704719
:1046C000F8B500BFF8BC08BC9E467047000000006B
:1046D000120024003000000006000C001000000052
:1046E0000000000001000000020000005465737427
:1046F00020434D5349532D52544F5320313A2053A8
:10470000656E646572205461736B0D00507265763E
:10471000696F7573207369676E616C20666C616781
:1047200020666F72207468652052656365697665DE
:1047300072205468726561643A20256C640D0A0029
:104740005465737420434D5349532D52544F532095
:10475000313A205265636569766572205461736BE6
:104760000D0000005369676E616C2073746174659D
:1047700020616674657220726563657074696F6E1E
:104780003A20256C640D0A005369676E616C2066DF
:104790006C6167206E6F7420636C65617265642064
:1047A00075706F6E20726563656963656421210DA4
:1047B000000000005369676E616C20666C616720C1
:1047C000636C65617265642075706F6E20726563DD
:1047D000657074696F6E0D00546872656164207352
:1047E00069676E616C206E6F7420726563656976AF
:1047F00065640D0054687265616420636F756C6454
:10480000206E6F7420626520637265617465642038
:1048100064756520746F20696E7375666669656E70
:1048200074206865617020737061636520647572BF
:10483000696E67207076506F72744D616C6C6F6337
:104840000D0000005461736B20636F756C64206E03
:104850006F74206265206372656172656420737590
:104860006365737366756C6C79212100434D534900
:1048700053315F52656365697665725F5461736B2E
:1048800000000000434D534953315F53656E64652A
:10489000725F5461736B00006C480008E10200080D
:1048A0000100000001000000000100000000000005
:1048B0000000000084480008A10200080000000079
:1048C00001000000000100000000000000000000E6
:1048D00001000000030000000500000001000000CE
:1048E00001000000060000000A0000002000000097
:1048F000020000000400000008000000100000009A
:1049000040000000800000000001000000020000E4
:104910000000000000000000000000000000000097
:10492000010000000200000003000000040000007D
:10493000A0860100400D0300801A060000350C001F
:1049400040420F0080841E0000093D0000127A00E2
:104950000024F40000366E010048E801006CDC021F
:104960000000000000000000000000000000000047
:1049700049444C4500000000546D72510000000095
:10498000546D722053766300140000200000000074
:104990000000000000000000000000000000000017
:1049A0000000000000000000000000000000000007
:1049B00000000000000000000000000000000000F7
:1049C00000000000000000000000000000000000E7
:1049D00000000000000000000000000000000000D7
:1049E000000000000000000000000000232D302B1C
:1049F0002000686C4C0065666745464700303132E0
:104A00003334353637383941424344454600303136
:104A10003233343536373839616263646566000095
:084A2000650100080000000020
:084A280041010008000000003C
:104A3000010000001000000000093D00AAAAAAAA77
:104A40001400002000000000AC490008CC49000818
:104A50008C49000800000000000000000000000079
:104A60000000000000000000000000000000000046
:104A70000000000000000000000000000000000036
:104A80000000000000000000000000000000000026
:104A90000000000000000000000000000000000016
:084AA00000000000000000000E
:04000005080035E9D1
:00000001FF
