:020000040800F2
:100000000080002005130008B5030008B7030008AE
:10001000B9030008BB030008BD030008000000008E
:10002000000000000000000000000000BF03000806
:10003000C103000800000000C3030008C503000856
:1000400055130008551300085513000855130008F0
:1000500055130008551300085513000855130008E0
:1000600055130008551300085513000855130008D0
:1000700055130008551300085513000855130008C0
:1000800055130008551300085513000855130008B0
:1000900055130008551300085513000855130008A0
:1000A0005513000855130008551300085513000890
:1000B0005513000855130008551300085513000880
:1000C0005513000855130008551300085513000870
:1000D0005513000855130008551300085513000860
:1000E0005513000855130008551300085513000850
:1000F0005513000855130008551300085513000840
:10010000551300085513000855130008551300082F
:10011000551300085513000855130008551300081F
:10012000551300085513000855130008551300080F
:080130005513000855130008E7
:1001400010B5054C237833B9044B13B10448AFF311
:1001500000800123237010BD70000020000000000B
:10016000C822000808B5034B1BB103490348AFF38D
:10017000008008BD0000000074000020C8220008B4
:1001800001F0FF01102A2BDB10F0070F08D010F848
:10019000013B013A8B422DD010F0070F42B3F6D14C
:1001A000F0B441EA012141EA014122F007047FF065
:1001B00000070023F0E80256083C85EA010586EABC
:1001C000010685FA47F5A3FA87F586FA47F6A5FAF8
:1001D00087F68EB9EED1F0BC01F0FF0102F0070204
:1001E00032B110F8013B013A83EA010313B1F8D1AF
:1001F0000020704701387047002D06BF3546033890
:10020000073815F0010F07D1013015F4807F02BFC8
:10021000013015F4C03F0130F0BC0138704700BF19
:100220002DE9F04188B000240394049405940694C9
:1002300007944FF0B043DA6C42F00202DA64DA6CF1
:1002400002F002020292029ADA6C42F00402DA64CC
:10025000DA6C02F004020192019ADA6C42F00102B7
:10026000DA64DB6C03F001030093009BDFF89080FD
:1002700022464FF40A41404600F00AFF214E224632
:100280003821304600F004FF4FF40A430393012560
:10029000049505940227069703A9404600F026FE20
:1002A00038230393049505944FF00308CDF8188084
:1002B00003A9304600F01AFECDF80C804FF4041864
:1002C000CDF81080059503A94FF0904000F00EFE88
:1002D00040230393CDF81080059503A9304600F024
:1002E00005FE0C23039304970594069407230793B4
:1002F00003A94FF0904000F0F9FD08B0BDE8F0818F
:10030000000400480008004872B6FEE700B59BB044
:100310004822002108A801F049F800230193029324
:100320000393049305930693079315490A6822F4EF
:10033000C06242F480620A600A6802F4C0620092FD
:10034000009A2022089201221092119360221292A8
:10035000139308A800F064F970B94F2301930021AA
:100360000291039104910591079101A800F08AFC84
:1003700020B91BB05DF804FBFFF7C6FFFFF7C4FF11
:100380000004005808B500F017FFFFF7BFFFFFF7A4
:1003900047FF4FF40041054800F07FFE044801F09C
:1003A0000DF84FF4FA6000F02FFFF2E70004004868
:1003B000FC220008FEE7FEE7FEE7FEE7FEE77047E7
:1003C0007047704708B500F00DFF08BD704700008A
:1003D000024A136843F480731360704700040058A6
:1003E000024B186800F4C060704700BF000400585A
:1003F00030B589B004468C462A4B93E8030006903A
:10040000ADF81C1003F1080292E803000490ADF867
:10041000141001AD103393E8070085E80700BCF520
:10042000007F07D0002314E008AA02EB830353F8EF
:100430001C5C1EE00023022B08D808AA02EB430232
:1004400032F8082CA242EFD20133F4E7002510E085
:100450000133022B0CD808AA02EB430232F8102C0D
:10046000A242F5D308AA02EB830353F81C5C00E018
:1004700000250D4A136823F007032B43136000F097
:10048000BDFE0446084B1B6803F00703AB4206D0D1
:1004900000F0B4FE001B0228F4D9032000E0002085
:1004A00009B030BDE02200080040005810B5C0F38C
:1004B00003100C4B53F820404FF0B043D3F80831F1
:1004C00003F00F03084A52F82300B4FBF0F4FFF7DF
:1004D00087FF01460548A0FB0430800CFFF788FF2A
:1004E00010BD00BF502300081023000883DE1B430B
:1004F0004FF0B0439968DB6803F0030311F00C017F
:100500000AD00C2906D0042947D008293BD0002264
:10051000104626E0012BF6D14FF0B0431B6813F0D4
:1005200008030DD04FF0B0431B6813F0080324D12B
:100530004FF0B042D2F894202E4A52F823200EE019
:100540004FF0B042126812F0080F12D14FF0B043D2
:10055000D3F89430C3F30323264A52F82320D1B1B1
:1005600000204FF0B0439B6803F00C030C2B1AD013
:1005700070474FF0B0421268EEE74FF0B0431B688F
:10058000C3F30313D8E74FF0B0431A6812F4801294
:1005900006D11948E5E71046E3E700221748E0E7EF
:1005A00000221648DDE74FF0B043DB6803F0030399
:1005B000022B09D0032B08D14FF0B0431B6813F472
:1005C000801F15D10C4A00E00C4A4FF0B043D868A8
:1005D000C0F3062000FB02F2D868C0F3021001301D
:1005E000B2FBF0F2D868400F0130B2FBF0F0BFE789
:1005F000024AEAE7502300080048E8010024F4001A
:1006000008B5FFF775FF4FF0B0439B68C3F30313C2
:10061000024A52F82330B0FBF3F008BD1023000863
:10062000002800F01183F8B504464FF0B0439D68F0
:1006300005F00C05DE6806F00306036813F0200FD2
:100640002AD0002D65D00C2D61D0236A002B00F03C
:10065000BF804FF0B042136843F00103136000F015
:10066000CDFD07464FF0B0431B6813F0020F00F0BA
:10067000A7804FF0B0431A6842F008021A601A6867
:1006800022F0F002A16A0A431A60616A5A6822F4F1
:100690007F4242EA01225A60236813F0010F00F002
:1006A000B580082D00F0AE800C2D00F0A8804FF032
:1006B000B042136823F48013A1680B43136063688E
:1006C000B3F5803F00F0C480B3F5041F00F0C5808F
:1006D0004FF0B0431A6822F480321A601A6822F48C
:1006E00000121A606368002B00F0C28000F086FDE3
:1006F00007464FF0B0431B6813F4003F40F086807C
:1007000000F07CFDC01B6428F3D90320A9E2012E70
:100710009BD1236A002B00F09982A06A4FF0B0436E
:100720001B6813F0080F29D04FF0B0431B6803F08B
:10073000F00398422AD9FFF7B9FE002840F08882DA
:100740004FF0B0431A6842F008021A601A6822F0AB
:10075000F002A16A0A431A60616A5A6822F47F4271
:1007600042EA01225A60FFF74BFFBA4B1860BA4BBE
:10077000186800F0F9FC00288ED072E24FF0B04308
:10078000D3F894301B0903F0F003D2E74FF0B043E5
:100790001A6842F008021A601A6822F0F002A16A90
:1007A0000A431A60616A5A6822F47F4242EA0122CF
:1007B0005A60A06AFFF77AFE0028D4D0012050E2E8
:1007C00000F01CFDC01B02287FF64CAF032048E25E
:1007D0004FF0B042136823F00103136000F00EFDE8
:1007E00007464FF0B0431B6813F0020F3FF454AFBD
:1007F00000F004FDC01B0228F3D9032031E2032ED0
:100800007FF455AF6368002B00F02482236813F057
:10081000020F56D0042D3DD00C2D39D02369002B6A
:1008200000F08A804FF0B042136843F48073136085
:1008300000F0E4FC06464FF0B0431B6813F4806FF1
:1008400036D100F0DBFC801B0228F4D9032008E23B
:10085000136843F48033136044E74FF0B0431A68E1
:1008600042F400121A601A6842F480321A6039E7C2
:1008700000F0C4FC07464FF0B0431B6813F4003F80
:10088000C4D000F0BBFCC01B6428F4D90320E8E10D
:10089000022EC3D12369002B00F0DE8161694FF085
:1008A000B042536823F0FE4343EA0163536008E01B
:1008B00061694FF0B042536823F0FE4343EA01639D
:1008C0005360236813F0080F7ED0A369002B62D019
:1008D0004FF0B043D3F89430E16903F01002914235
:1008E00011D003F00302022A00F0B88113F0010FC7
:1008F00038D14FF0B042D2F8943023F01003E169C0
:100900000B43C2F894304FF0B042D2F8943043F029
:100910000103C2F8943000F071FC06464FF0B0437A
:10092000D3F8943013F0020F4ED100F067FC801B17
:100930001128F3D9032094E14FF0B042136823F457
:100940008073136000F05AFC06464FF0B0431B68FA
:1009500013F4806FB5D000F051FC801B0228F4D94D
:1009600003207EE14FF0B042D2F8943023F001032F
:10097000C2F8943000F042FC06464FF0B043D3F882
:10098000943013F0020FB4D000F038FC801B112813
:10099000F3D9032065E14FF0B042D2F8943023F050
:1009A0000103C2F8943000F029FC06464FF0B04332
:1009B000D3F8943013F0020F06D000F01FFC801B18
:1009C0001128F3D903204CE1236813F0040F00F041
:1009D000B880224B1B6813F4807F10D1FFF7F8FC1E
:1009E00000F00CFC06461D4B1B6813F4807F06D1FB
:1009F00000F004FC801B0228F5D9032031E1E368F4
:100A0000002B68D0852B01D0052B07D14FF0B042C9
:100A1000D2F8903043F00403C2F8903000F0EEFBBF
:100A200006464FF0B042D2F8903043F00103C2F8CE
:100A300090304FF0B043D3F8903013F0020F0FD145
:100A400000F0DCFB801B41F288339842F1D903208F
:100A500007E100BF08000020040000200004005847
:100A6000E368812B01D0852B1AD100F0C7FB064625
:100A70004FF0B042D2F8903043F08003C2F890308B
:100A80004FF0B043D3F8903013F4006F59D100F019
:100A9000B5FB801B41F288339842F1D90320E0E096
:100AA00000F0ACFB06464FF0B042D2F8903023F095
:100AB0008003C2F890304FF0B043D3F8903013F475
:100AC000006F3ED000F09AFB801B41F288339842C1
:100AD000F1D90320C5E000F091FB06464FF0B0428B
:100AE000D2F8903023F08003C2F890304FF0B0433A
:100AF000D3F8903013F4006F08D000F07FFB801B18
:100B000041F288339842F1D90320AAE000F076FB45
:100B100006464FF0B042D2F8903023F00103C2F8FD
:100B200090304FF0B043D3F8903013F0020F08D05C
:100B300000F064FB801B41F288339842F1D9032016
:100B40008FE0E36A002B00F08B800C2D60D0022B2D
:100B500016D04FF0B042136823F08073136000F09A
:100B60004DFB04464FF0B0431B6813F0007F48D1A3
:100B70004FF0B042D168414B0B40D360002070E091
:100B80004FF0B042136823F08073136000F036FB1F
:100B900005464FF0B0431B6813F0007F2AD14FF099
:100BA000B042D36836491940236B606B0343A06B96
:100BB00043EA0023E06B0343206C0343606C034370
:100BC0000B43D360136843F080731360D36843F022
:100BD0008053D36000F012FB04464FF0B0431B6813
:100BE00013F0007F3ED100F009FB001B0A28F4D966
:100BF000032036E000F002FB401B0A28C9D903207D
:100C00002FE000F0FBFA001B0A28ABD9032028E0F4
:100C1000012B29D04FF0B043DB6803F00301226BB6
:100C2000914223D103F07002616B8A4220D103F418
:100C3000FE42A16BB2EB012F1CD103F06043626C4A
:100C4000934219D100200CE001207047012008E0F8
:100C5000012006E0012004E0012002E0012000E084
:100C60000020F8BD0020FCE70120FAE70120F8E7AA
:100C70000120F6E70120F4E70120F2E7FCFFFEEE99
:100C80008C80C111002800F0278170B50C46054604
:100C9000934B1B6803F007038B422DD32B6813F093
:100CA000020F3FD12B6813F0200F53D12B6813F0A4
:100CB000400F6AD12B6813F0040F40F083802B683B
:100CC00013F0080F40F097802B6813F0010F00F02D
:100CD000DE806B68022B00F0A880032B00F0AD8053
:100CE000002B40F0B2804FF0B042126812F0020FB9
:100CF00040F0B1800120EEE0794A136823F0070349
:100D00000B43136000F07AFA0646754B1B6803F03C
:100D10000703A342C2D000F071FA801B0228F4D965
:100D20000320D8E0AB684FF0B0418A6822F0F002AF
:100D300013438B6000F062FA06464FF0B0439B68A5
:100D400013F4803FAED100F059FA801B0228F4D989
:100D50000320C0E06B694FF0B041D1F8082122F0C8
:100D6000F0021343C1F8083100F048FA06464FF08C
:100D7000B043D3F8083113F4003F97D100F03EFAA6
:100D8000801B0228F3D90320A5E0A9694FF0B042E7
:100D9000D2F8083123F00F0343EA1113C2F80831E7
:100DA00000F02CFA06464FF0B043D3F8083113F4A4
:100DB000803F7FF47FAF00F021FA801B0228F2D938
:100DC000032088E0EB684FF0B0418A6822F4E062CB
:100DD00013438B6000F012FA06464FF0B0439B6855
:100DE00013F4003F7FF46BAF00F008FA801B022879
:100DF000F3D903206FE029694FF0B042936823F4E0
:100E0000605343EAC103936000F0F8F906464FF0DF
:100E1000B0439B6813F4802F7FF456AF00F0EEF9D7
:100E2000801B0228F3D9032055E04FF0B04212682E
:100E300012F4003F0FD101204DE04FF0B042126894
:100E400012F0007F07D1012045E04FF0B042126858
:100E500012F4806F42D04FF0B0418A6822F0030252
:100E600013438B6000F0CAF906464FF0B0439B680D
:100E700003F00C036A68B3EB820F08D000F0BEF9F0
:100E8000801B41F288339842EFD9032023E0144BB2
:100E90001B6803F00703A34215D9114A136823F016
:100EA00007032343136000F0A9F905460C4B1B68A8
:100EB00003F00703A34206D000F0A0F9401B02286C
:100EC000F4D9032007E0FFF79BFB064B1860064BA5
:100ED000186800F049F970BD012070470120FAE759
:100EE00000400058080000200400002070B50023D6
:100EF00069E085685E000324B44025EA0405CC68F7
:100F0000B4402C438460446824EA0C0C4C68C4F35D
:100F100000149C4044EA0C04446065E0DD08083598
:100F200050F8256003F007044FEA840C0F2404FAFC
:100F30000CF426EA040E0C6904FA0CF444EA0E04DC
:100F400040F8254067E0022400E0002404FA0EF493
:100F50002C430CF1020C4B4D45F82C404A4C2568B3
:100F6000D44325EA0206D1F804C01CF4801F01D046
:100F700042EA0506444D2E606D6804EA0506D1F884
:100F800004C01CF4001F01D042EA05063E4D6E600D
:100F9000D5F8805004EA0506D1F804C01CF4803F5F
:100FA00001D042EA0506384DC5F88060D5F8845076
:100FB0002C404E6816F4003F01D042EA0504324A44
:100FC000C2F8844001330A6832FA03F458D04FF073
:100FD000010C0CFA03FC1CEA0202F3D04C6804F08A
:100FE0000304013C012C84D94C6804F00304032C55
:100FF0000CD0C4685D004FF0030C0CFA05FC24EA29
:101000000C0C8C68AC4044EA0C04C4604C6804F0DE
:101010000304022C82D004684FEA430E4FF0030C05
:101020000CFA0EFC24EA0C0C4C6804F0030404FADD
:101030000EF444EA0C0404604C6814F4403FC1D040
:101040004FEA930C0CF102050E4C54F8255003F0B6
:1010500003044FEA840E072404FA0EF425EA04057B
:10106000B0F1904F3FF471AF084CA04206D004F5A8
:101070008064A0423FF467AF072467E7012465E777
:1010800070BD00BF00000140000800580004004887
:101090000AB18161704781627047436901EA0302C6
:1010A00021EA030141EA024181617047074AD3689E
:1010B00023F4E0631B041B0C000200F4E060034314
:1010C00043F0BF6343F40033D360704700ED00E0AA
:1010D00000B5194BDB68C3F30223C3F1070CBCF165
:1010E000040F28BF4FF0040C03F1040EBEF1060FED
:1010F00018D9033B4FF0FF3E0EFA0CFC21EA0C011D
:1011000099400EFA03F322EA0303194300280BDB8C
:101110000901C9B200F1604000F5614080F8001398
:101120005DF804FB0023E5E700F00F000901C9B2F8
:10113000024B1954F4E700BF00ED00E014ED00E0AD
:101140000138B0F1807F0BD24FF0E0235861054A9F
:10115000F02182F823100020986107221A6170475D
:101160000120704700ED00E0114B1B780BB9012006
:10117000704710B50446FFF743FA0D4B1A784FF449
:101180007A73B3FBF2F3B0FBF3F0FFF7D9FF68B962
:101190000F2C01D901200AE0002221464FF0FF3038
:1011A000FFF796FF034B1C60002000E0012010BDFC
:1011B000000000200400002010B50320FFF776FF98
:1011C000FFF71EFA064B18600020FFF7CDFF10B1A5
:1011D0000124204610BD0446FFF7F8F8F9E700BFE8
:1011E00008000020034B1B78034A11680B4413606E
:1011F000704700BF000000208C000020014B1868E1
:10120000704700BF8C00002038B50446FFF7F6FF9A
:101210000546B4F1FF3F02D0044B1B781C44FFF796
:10122000EDFF401BA042FAD338BD00BF00000020F4
:101230007047000010B503460C4A0D490D48006880
:1012400040B10C4800680344521A934206D8094A38
:10125000136010BD0748084C0460F2E700F07CF80A
:101260000C2303604FF0FF30F3E700BF0080002045
:101270000004000090000020A80000204FF0E022B1
:10128000D2F8FC3D43F08073C2F8FC3D4FF0604261
:10129000D2F8003E43F00103C2F8003E4FF0604335
:1012A0001B6813F0010FF9D04FF0604318607047CE
:1012B00070B50C461646002506E0AFF300802146C7
:1012C00001F8010B01350C46B542F6DB304670BD26
:1012D00070B50C461646002504E014F8010BFFF724
:1012E000CDFF0135B542F8DB304670BD4FF0FF3021
:1012F00070474FF400534B60002070470120704747
:10130000002070470D488546FFF792FF0C480D49B5
:101310000D4A002302E0D458C4500433C4188C4250
:10132000F9D30A4A0A4C002301E013600432A242B6
:10133000FBD300F017F8FFF725F8FEE70080002048
:1013400000000020700000203824000870000020F9
:10135000A8000020FEE70000014B1868704700BF9E
:101360000C00002070B50D4D0D4C641BA410002620
:10137000A64209D10B4D0C4C00F0A6FF641BA41033
:101380000026A64205D170BD55F8043B98470136AA
:10139000EEE755F8043B98470136F2E728240008A9
:1013A00028240008282400082C24000802440346AE
:1013B000934200D1704703F8011BF9E70FB40A4BC1
:1013C00013B51C6824B1A36913B9204600F066F870
:1013D00005AB049AA1680193204600F0BBF902B066
:1013E000BDE8104004B070470C000020002310B589
:1013F0000446C0E90033C0E9043383608181436659
:10140000C2818361194608225C30FFF7CFFF054B8C
:101410006362054BA362054BE362054B24622363C1
:1014200010BD00BFFD1C00081F1D0008571D00084F
:101430007B1D0008014900F0AFB800BF4D20000837
:1014400070B568224D1E55430E4605F1740100F03B
:10145000E5F8044640B10021C0E900160C30A06058
:1014600005F16802FFF7A2FF204670BD014800F0B9
:10147000B3B800BF95000020014800F0AEB800BF2F
:1014800095000020014800F0A7B800BF960000209A
:10149000014800F0A2B800BF9600002010B5044635
:1014A000FFF7F0FFA3691BB1BDE81040FFF7F0BFE5
:1014B000C4E912332365134B134A1B68A262A3428B
:1014C00004BF0123A361204600F020F8606020469D
:1014D00000F01CF8A060204600F018F80022E06040
:1014E00004216068FFF782FFA06801220921FFF74D
:1014F0007DFFE06802221221FFF778FF0123A3613C
:10150000D2E700BF9023000835140008F8B507465D
:10151000FFF7ACFF1E4B1E68B36913B93046FFF7E7
:10152000BDFF4836D6E90134013B03D533680BB320
:101530003668F7E7B4F90C50D5B9164BE36004F1FF
:101540005800656600F047F8FFF796FFC4E90155BB
:10155000C4E904552560A5610822294604F15C0010
:10156000FFF724FFC4E90D55C4E912552046F8BD24
:101570006834D9E704213846FFF762FF044630603B
:101580000028D5D1FFF778FF0C233B60EEE700BFC2
:10159000902300080100FFFF2DE9F8430646884626
:1015A00000F148040027D4E90195B9F1010905D5F6
:1015B0002468002CF7D13846BDE8F883AB89012BAD
:1015C00007D9B5F90E30013303D029463046C0475C
:1015D00007436835E9E770477047704770B50E4EAE
:1015E0000C463168054611B900F078FB30602146A1
:1015F000284600F073FB431C0AD0C41C24F00304EB
:10160000A04207D0211A284600F068FB013001D122
:101610004FF0FF34204670BD9C0000202DE9F041C2
:10162000CD1C25F0030508350C2D38BF0C25002DE9
:10163000074601DBA94205D90C233B600026304652
:10164000BDE8F0812E4E00F0B5FD33681C4634BB7A
:1016500029463846FFF7C2FF431C04464DD1346883
:101660002646002E40D123683146384604EB030855
:1016700000F034FB80453AD1216803356D1A25F01E
:10168000030508350C2D38BF0C2529463846FFF7D1
:10169000A5FF01302BD023682B4423600EE0226885
:1016A000521B1ED40B2A16D96119A342256018BFFC
:1016B0005960636808BF316062514B60384604F17D
:1016C0000B0600F07DFD26F00706231DF21AB6D0AA
:1016D0009B1BA350B3E76268A3420CBF32605A6001
:1016E000ECE723466468B2E734467668B9E70C2332
:1016F0003B60384600F064FDA1E72560DEE700BFEF
:10170000980000209368013B002B10B4936007DA27
:101710009469A34201DB0A2902D110BC00F032BB5C
:101720001368581C10601970084610BC7047F8B553
:1017300006460F461446D518AC4201D1002007E0FA
:1017400014F8011B3A463046FFF7DCFF431CF3D187
:10175000F8BD00002DE9F04F0D469DB014469846A7
:10176000064618B183690BB9FFF798FE894B9D4275
:101770001BD175686B6ED90705D4AB899A0502D465
:10178000A86DFFF729FFAB891B0701D52B69EBB9C2
:101790002946304600F05AFBC0B16B6EDC070ED50F
:1017A0004FF0FF301DB0BDE8F08F7B4B9D4201D163
:1017B000B568DFE7794B9D4208BFF568DAE7AB898A
:1017C0009805EDD4A86DFFF708FFE9E7002309931A
:1017D00020238DF82930CDF80C803023DFF8C0812C
:1017E0008DF82A304FF0010923469A4613F8012B51
:1017F0000AB1252AF9D1BAEB040B0BD05B4622467D
:1018000029463046FFF793FF013000F0AA80099A7D
:101810005A4409929AF80030002B00F0A28000236D
:101820004FF0FF32CDE905230AF1010A0493079333
:101830008DF853301A935446052214F8011B58486A
:10184000FEF79EFC049AD8B9D10644BF20238DF838
:101850005330130744BF2B238DF853309AF80030D0
:101860002A2B15D0079A544600204FF00A0C214627
:1018700011F8013B303B092B4ED9B0B1079214E06F
:10188000A0EB080309FA03F313430493A246D2E73B
:10189000039B191D1B680391002BBBBF5B4242F0E9
:1018A000020207930793B8BF049223782E2B0CD122
:1018B00063782A2B35D1039B1A1D1B680392002BDA
:1018C000B8BF4FF0FF3302340593DFF8D8A021787A
:1018D00003225046FEF754FC40B14023A0EB0A001F
:1018E00003FA00F0049B03430134049314F8011B32
:1018F0002D488DF828100622FEF742FC00283FD024
:101900002A4B1BBB039B073323F0070308330393C6
:10191000099B3B44099367E70CFB02320C4601200C
:10192000A5E700230134059319464FF00A0C204621
:1019300010F8012B303A092A03D9002BC5D00591A4
:10194000C3E70CFB012104460123F0E703AB00933E
:101950002A46174B04A93046AFF300800746781C8F
:10196000D6D16B6ED90705D4AB899A0502D4A86D80
:10197000FFF733FEAB895B063FF512AF099811E71D
:1019800003AB00932A460A4B04A9304600F080F8C6
:10199000E4E700BFB4230008D42300089423000820
:1019A000F4230008FA230008FE23000800000000CA
:1019B0002F1700082DE9F047164699468A680B69EB
:1019C000DDF820809342B8BF1346336091F843207E
:1019D00007460C460AB1013333602368990642BFBB
:1019E000336802333360256815F0060506D104F12B
:1019F000190AE36832689B1AAB4226DC94F843204C
:101A0000131E226818BF012392062BD404F143024F
:101A100049463846C04701301ED02368E568326821
:101A200003F00603042B08BFAD1AA36822690CBF9C
:101A300025EAE57500259342C4BF9B1AED180026E0
:101A40001A34B5421AD1002008E001235246494613
:101A50003846C047013003D14FF0FF30BDE8F08772
:101A60000135C6E7E1185A1C302081F843002244B2
:101A700094F8451082F843100233C7E70123224649
:101A800049463846C0470130E6D00136D9E7000064
:101A90002DE9FF470F7E0C9D782F914680460C461E
:101AA0009A4601F1430207D8622F0AD8002F00F0AE
:101AB000D880582F00F0A38004F1420584F84270CA
:101AC0003AE0A7F16303152BF6D801A151F823F0F2
:101AD000291B00083D1B0008B91A0008B91A0008A4
:101AE000B91A0008B91A00083D1B0008B91A000805
:101AF000B91A0008B91A0008B91A0008491C0008E8
:101B00006D1B00082B1C0008B91A0008B91A000840
:101B10006B1C0008B91A00086D1B0008B91A0008F0
:101B2000B91A0008331C00082B681A1D1B682A60AC
:101B300004F1420584F842300123A3E020682968BB
:101B4000060601F104030AD50E682B60002E03DAA5
:101B50002D23764284F843305E480A2319E00E684C
:101B60002B6010F0400F18BF36B2EFE72B682068EB
:101B7000191D2960010601D51E6802E04606FBD545
:101B80001E8854486F2F0CBF08230A23002184F8B5
:101B900043106568A560002DA2BF216821F00401F3
:101BA00021600EB9002D4DD01546B6FBF3F103FBB5
:101BB0001167C75D05F8017D3746BB420E46F4D973
:101BC000082B0BD12368DE0708D523696168994289
:101BD000DEBF302305F8013C05F1FF35521B2261C1
:101BE000CDF800A04B4603AA21464046FFF7E2FE8F
:101BF00001304CD14FF0FF3004B0BDE8F0873548DC
:101C000081F845702968236851F8046B29601D0626
:101C100014D5DF0744BF43F0200323601EB92368B7
:101C200023F0200323601023B0E7236843F0200350
:101C300023607823284884F84530E3E7590648BFF5
:101C4000B6B2E6E71546BBE72B6826686169181D42
:101C5000286035061B6801D5196002E07006FBD5C7
:101C60001980002323611546BAE72B681A1D2A60E4
:101C70001D68626800212846FEF782FA08B1401B01
:101C8000606063682361002384F84330A8E7236918
:101C90002A4649464046D0470130ABD023689B07CF
:101CA00013D4E068039B9842B8BF1846A4E7012309
:101CB000324649464046D04701309BD00135E36863
:101CC00003995B1AAB42F2DCEBE7002504F119063D
:101CD000F5E700BF052400081624000838B5064DB6
:101CE0000023044608462B60FFF7A4FA431C02D1E8
:101CF0002B6803B1236038BDA000002010B50C464E
:101D0000B1F90E1000F0ACFA0028ABBF636DA389E7
:101D10001B1823F48053ACBF6365A38110BD2DE96C
:101D2000F0411F468B89DB0505460C46164605D556
:101D3000B1F90E100223002200F0C4F9A389B4F90E
:101D40000E1023F48053A38132463B462846BDE85B
:101D5000F04100F069B810B50C46B1F90E1000F072
:101D6000B1F9431CA38915BF606523F4805343F484
:101D70008053A38118BFA38110BDB1F90E1000F0EC
:101D8000D3B80000F8B50E461446054618B183696D
:101D90000BB9FFF783FB214B9C422BD16C68A369E5
:101DA000A360A3891A072FD523696BB32369206821
:101DB000C01A6369F6B28342374604DC21462846DE
:101DC00000F044F930BBA368013BA36023685A1CB0
:101DD00022601E7063690130834204D0A389DB074F
:101DE00006D50A2E04D12146284600F02FF988B9DD
:101DF0003846F8BD0A4B9C4201D1AC68CFE7094B8D
:101E00009C4208BFEC68CAE72146284600F01EF84D
:101E10000028CBD04FF0FF37EAE700BFB42300081B
:101E2000D42300089423000838B5074D044608461B
:101E3000114600222A601A46FFF74AFA431C02D1D3
:101E40002B6803B1236038BDA0000020324B70B571
:101E50001D6806460C4625B1AB6913B92846FFF745
:101E60001DFB2E4B9C420FD16C68A389B4F90C204A
:101E700019072CD4DD0611D40923336042F0400346
:101E8000A3814FF0FF303EE0254B9C4201D1AC686E
:101E9000EBE7244B9C4208BFEC68E6E7580712D5F5
:101EA000616B41B104F14403994202D0304600F025
:101EB0008DF900236363A38923F02403A381002306
:101EC000636023692360A38943F00803A381236926
:101ED0004BB9A38903F42073B3F5007F03D02146E7
:101EE000304600F027F9A089B4F90C2010F0010366
:101EF0000AD00023A36063695B42A361236943B9ED
:101F000010F08000BAD170BD810758BF6369A3602B
:101F1000F4E70020F7E700BF0C000020B42300081E
:101F2000D42300089423000838B5064D0023044646
:101F300008462B60FFF7DAF9431C02D12B6803B186
:101F4000236038BDA00000208A89F8B50546100737
:101F50000C4657D44B68002B04DC0B6C002B01DCC7
:101F60000020F8BDE66A002EFAD0002312F4805259
:101F70002F682B6032D0606DA3895A0705D563683E
:101F8000C01A636B0BB1236CC01A00230246E66AC9
:101F9000216A2846B047431CA38906D129681D2918
:101FA0002CD8294ACA40D60728D500226260D90415
:101FB0002269226004D5421C01D12B6803B96065F7
:101FC000616B2F600029CBD004F14403994202D009
:101FD000284600F0FBF800206063C2E7216A012375
:101FE0002846B047411CC7D12B68002BC4D01D2BFD
:101FF00001D0162B01D12F60B2E7A38943F0400333
:10200000A381AEE70F69002FAAD093070E6808BF1F
:102010004B690F6018BF0023F61B8B60002E9FDDFD
:10202000216AD4F828C033463A462846E0470028BB
:1020300006DCA38943F04003A3814FF0FF3090E713
:102040000744361AEAE700BF0100402038B50B69A3
:1020500005460C4613B90025284638BD18B18369DA
:102060000BB9FFF71BFA144B9C421BD16C68B4F9F7
:102070000C30002BEFD0626ED00704D4990502D447
:10208000A06DFFF7A9FA28462146FFF75DFF636EB2
:10209000DA070546E0D4A3899B05DDD4A06DFFF7E0
:1020A0009CFAD9E7054B9C4201D1AC68DFE7044BB1
:1020B0009C4208BFEC68DAE7B4230008D423000888
:1020C0009423000838B5074D0446084611460022FF
:1020D0002A601A46FFF714F9431C02D12B6803B19A
:1020E000236038BDA000002070B50E46B1F90E1077
:1020F000002996B014461D4608DAB6F90C300022C5
:102100002A601A0610D44FF480630EE06A4600F08D
:10211000B9F80028F1DB019A02F47042A2F50053ED
:102120005A425A412A60EEE740230020236016B04D
:1021300070BD00008B8973B59D0706460C4607D518
:1021400004F14703236023610123636102B070BD82
:1021500001AB6A46FFF7C8FF009905463046FFF716
:102160005DFA48B9B4F90C309A05EFD423F00303B3
:1021700043F00203A381E3E70D4BB362A389206020
:1021800043F08003A381009B6361019B20615BB1ED
:10219000B4F90E10304600F087F828B1A38923F077
:1021A000030343F00103A381A0890543A581CDE783
:1021B000351400080148FFF70FBA00BF9400002053
:1021C0000148FFF70ABA00BF9400002038B5054661
:1021D000002941D051F8043C0C1F002BB8BFE41873
:1021E000FFF7E8FF1D4A136833B96360146028469F
:1021F000BDE83840FFF7E4BFA34208D920682118A2
:102200008B4201BF19685B6809182160EDE71A4627
:102210005B680BB1A342FAD911685018A0420BD1E8
:1022200020680144501883421160E0D118685B684F
:10223000536001441160DAE702D90C232B60D6E722
:10224000206821188B4204BF19685B68636004BF73
:10225000091821605460CAE738BD00BF980000200B
:1022600038B5074D04460846114600222A601A4632
:10227000FFF71EF8431C02D12B6803B1236038BD61
:10228000A000002038B5074D00230446084611463B
:102290002B60FFF72EF8431C02D12B6803B123609B
:1022A00038BD00BFA000002038B5064D002304460D
:1022B00008462B60FFF722F8431C02D12B6803B1BC
:1022C000236038BDA0000020F8B500BFF8BC08BCF2
:1022D0009E467047F8B500BFF8BC08BC9E467047E4
:1022E000120024003000000006000C001000000066
:1022F0000000000001000000020000005653436F80
:1023000064652049544D20546573740A0D00000023
:1023100001000000030000000500000001000000B3
:1023200001000000060000000A000000200000007C
:10233000020000000400000008000000100000007F
:1023400040000000800000000001000000020000CA
:10235000A0860100400D0300801A060000350C0025
:1023600040420F0080841E0000093D0000127A00E8
:102370000024F40000366E010048E801006CDC0225
:10238000000000000000000000000000000000004D
:10239000100000200000000000000000000000000D
:1023A000000000000000000000000000000000002D
:1023B000000000000000000000000000000000001D
:1023C000000000000000000000000000000000000D
:1023D00000000000000000000000000000000000FD
:1023E00000000000000000000000000000000000ED
:1023F00000000000232D302B2000686C4C00656627
:102400006745464700303132333435363738394145
:10241000424344454600303132333435363738395B
:0824200061626364656600005F
:0824280065010008000000003E
:0824300041010008000000005A
:10243800010000001000000000093D00100000200D
:1024480000000000B4230008D423000894230008E7
:102458000000000000000000000000000000000074
:102468000000000000000000000000000000000064
:102478000000000000000000000000000000000054
:102488000000000000000000000000000000000044
:102498000000000000000000000000000000000034
:0400000508001305D7
:00000001FF
